{
  "_format": "hh-sol-artifact-1",
  "contractName": "CyberDegensNFT",
  "sourceName": "contracts/CyberDegensNFT.sol",
  "abi": [
    {
      "inputs": [],
      "stateMutability": "payable",
      "type": "constructor"
    },
    {
      "anonymous": false,
      "inputs": [
        {
          "indexed": true,
          "internalType": "address",
          "name": "owner",
          "type": "address"
        },
        {
          "indexed": true,
          "internalType": "address",
          "name": "approved",
          "type": "address"
        },
        {
          "indexed": true,
          "internalType": "uint256",
          "name": "tokenId",
          "type": "uint256"
        }
      ],
      "name": "Approval",
      "type": "event"
    },
    {
      "anonymous": false,
      "inputs": [
        {
          "indexed": true,
          "internalType": "address",
          "name": "owner",
          "type": "address"
        },
        {
          "indexed": true,
          "internalType": "address",
          "name": "operator",
          "type": "address"
        },
        {
          "indexed": false,
          "internalType": "bool",
          "name": "approved",
          "type": "bool"
        }
      ],
      "name": "ApprovalForAll",
      "type": "event"
    },
    {
      "anonymous": false,
      "inputs": [
        {
          "indexed": true,
          "internalType": "uint256",
          "name": "tokenId",
          "type": "uint256"
        },
        {
          "indexed": false,
          "internalType": "address",
          "name": "burner",
          "type": "address"
        }
      ],
      "name": "Burn",
      "type": "event"
    },
    {
      "anonymous": false,
      "inputs": [
        {
          "indexed": true,
          "internalType": "address",
          "name": "previousOwner",
          "type": "address"
        },
        {
          "indexed": true,
          "internalType": "address",
          "name": "newOwner",
          "type": "address"
        }
      ],
      "name": "OwnershipTransferred",
      "type": "event"
    },
    {
      "anonymous": false,
      "inputs": [
        {
          "indexed": true,
          "internalType": "address",
          "name": "from",
          "type": "address"
        },
        {
          "indexed": true,
          "internalType": "address",
          "name": "to",
          "type": "address"
        },
        {
          "indexed": true,
          "internalType": "uint256",
          "name": "tokenId",
          "type": "uint256"
        }
      ],
      "name": "Transfer",
      "type": "event"
    },
    {
      "inputs": [
        {
          "internalType": "uint256",
          "name": "",
          "type": "uint256"
        }
      ],
      "name": "_owner",
      "outputs": [
        {
          "internalType": "address",
          "name": "",
          "type": "address"
        }
      ],
      "stateMutability": "view",
      "type": "function"
    },
    {
      "inputs": [
        {
          "internalType": "address[]",
          "name": "addresses_",
          "type": "address[]"
        }
      ],
      "name": "addToWhitelist",
      "outputs": [],
      "stateMutability": "nonpayable",
      "type": "function"
    },
    {
      "inputs": [
        {
          "internalType": "address",
          "name": "to",
          "type": "address"
        },
        {
          "internalType": "uint256",
          "name": "tokenId",
          "type": "uint256"
        }
      ],
      "name": "approve",
      "outputs": [],
      "stateMutability": "nonpayable",
      "type": "function"
    },
    {
      "inputs": [],
      "name": "balance",
      "outputs": [
        {
          "internalType": "uint256",
          "name": "",
          "type": "uint256"
        }
      ],
      "stateMutability": "view",
      "type": "function"
    },
    {
      "inputs": [
        {
          "internalType": "address",
          "name": "owner",
          "type": "address"
        }
      ],
      "name": "balanceOf",
      "outputs": [
        {
          "internalType": "uint256",
          "name": "",
          "type": "uint256"
        }
      ],
      "stateMutability": "view",
      "type": "function"
    },
    {
      "inputs": [],
      "name": "baseTokenUri",
      "outputs": [
        {
          "internalType": "string",
          "name": "",
          "type": "string"
        }
      ],
      "stateMutability": "view",
      "type": "function"
    },
    {
      "inputs": [
        {
          "internalType": "uint256",
          "name": "tokenId",
          "type": "uint256"
        }
      ],
      "name": "burn",
      "outputs": [],
      "stateMutability": "nonpayable",
      "type": "function"
    },
    {
      "inputs": [
        {
          "internalType": "uint256",
          "name": "_tokenId",
          "type": "uint256"
        }
      ],
      "name": "burnNFT",
      "outputs": [],
      "stateMutability": "nonpayable",
      "type": "function"
    },
    {
      "inputs": [
        {
          "internalType": "uint256",
          "name": "tokenId",
          "type": "uint256"
        }
      ],
      "name": "getApproved",
      "outputs": [
        {
          "internalType": "address",
          "name": "",
          "type": "address"
        }
      ],
      "stateMutability": "view",
      "type": "function"
    },
    {
      "inputs": [
        {
          "internalType": "address",
          "name": "owner",
          "type": "address"
        },
        {
          "internalType": "address",
          "name": "operator",
          "type": "address"
        }
      ],
      "name": "isApprovedForAll",
      "outputs": [
        {
          "internalType": "bool",
          "name": "",
          "type": "bool"
        }
      ],
      "stateMutability": "view",
      "type": "function"
    },
    {
      "inputs": [],
      "name": "isPublicMintEnabled",
      "outputs": [
        {
          "internalType": "bool",
          "name": "",
          "type": "bool"
        }
      ],
      "stateMutability": "view",
      "type": "function"
    },
    {
      "inputs": [],
      "name": "isWhitelistEnabled",
      "outputs": [
        {
          "internalType": "bool",
          "name": "",
          "type": "bool"
        }
      ],
      "stateMutability": "view",
      "type": "function"
    },
    {
      "inputs": [],
      "name": "maxPerWallet",
      "outputs": [
        {
          "internalType": "uint256",
          "name": "",
          "type": "uint256"
        }
      ],
      "stateMutability": "view",
      "type": "function"
    },
    {
      "inputs": [],
      "name": "maxSupply",
      "outputs": [
        {
          "internalType": "uint256",
          "name": "",
          "type": "uint256"
        }
      ],
      "stateMutability": "view",
      "type": "function"
    },
    {
      "inputs": [
        {
          "internalType": "uint256",
          "name": "quantity_",
          "type": "uint256"
        }
      ],
      "name": "mint",
      "outputs": [],
      "stateMutability": "payable",
      "type": "function"
    },
    {
      "inputs": [],
      "name": "mintPrice",
      "outputs": [
        {
          "internalType": "uint256",
          "name": "",
          "type": "uint256"
        }
      ],
      "stateMutability": "view",
      "type": "function"
    },
    {
      "inputs": [],
      "name": "name",
      "outputs": [
        {
          "internalType": "string",
          "name": "",
          "type": "string"
        }
      ],
      "stateMutability": "view",
      "type": "function"
    },
    {
      "inputs": [],
      "name": "owner",
      "outputs": [
        {
          "internalType": "address",
          "name": "",
          "type": "address"
        }
      ],
      "stateMutability": "view",
      "type": "function"
    },
    {
      "inputs": [],
      "name": "ownerAddress",
      "outputs": [
        {
          "internalType": "address",
          "name": "",
          "type": "address"
        }
      ],
      "stateMutability": "view",
      "type": "function"
    },
    {
      "inputs": [
        {
          "internalType": "uint256",
          "name": "tokenId",
          "type": "uint256"
        }
      ],
      "name": "ownerOf",
      "outputs": [
        {
          "internalType": "address",
          "name": "",
          "type": "address"
        }
      ],
      "stateMutability": "view",
      "type": "function"
    },
    {
      "inputs": [
        {
          "internalType": "bool",
          "name": "_state",
          "type": "bool"
        }
      ],
      "name": "pause",
      "outputs": [],
      "stateMutability": "nonpayable",
      "type": "function"
    },
    {
      "inputs": [],
      "name": "paused",
      "outputs": [
        {
          "internalType": "bool",
          "name": "",
          "type": "bool"
        }
      ],
      "stateMutability": "view",
      "type": "function"
    },
    {
      "inputs": [
        {
          "internalType": "address[]",
          "name": "addresses_",
          "type": "address[]"
        }
      ],
      "name": "removeFromWhitelist",
      "outputs": [],
      "stateMutability": "nonpayable",
      "type": "function"
    },
    {
      "inputs": [],
      "name": "renounceOwnership",
      "outputs": [],
      "stateMutability": "nonpayable",
      "type": "function"
    },
    {
      "inputs": [
        {
          "internalType": "address",
          "name": "from",
          "type": "address"
        },
        {
          "internalType": "address",
          "name": "to",
          "type": "address"
        },
        {
          "internalType": "uint256",
          "name": "tokenId",
          "type": "uint256"
        }
      ],
      "name": "safeTransferFrom",
      "outputs": [],
      "stateMutability": "nonpayable",
      "type": "function"
    },
    {
      "inputs": [
        {
          "internalType": "address",
          "name": "from",
          "type": "address"
        },
        {
          "internalType": "address",
          "name": "to",
          "type": "address"
        },
        {
          "internalType": "uint256",
          "name": "tokenId",
          "type": "uint256"
        },
        {
          "internalType": "bytes",
          "name": "data",
          "type": "bytes"
        }
      ],
      "name": "safeTransferFrom",
      "outputs": [],
      "stateMutability": "nonpayable",
      "type": "function"
    },
    {
      "inputs": [
        {
          "internalType": "address",
          "name": "operator",
          "type": "address"
        },
        {
          "internalType": "bool",
          "name": "approved",
          "type": "bool"
        }
      ],
      "name": "setApprovalForAll",
      "outputs": [],
      "stateMutability": "nonpayable",
      "type": "function"
    },
    {
      "inputs": [
        {
          "internalType": "string",
          "name": "baseTokenUri_",
          "type": "string"
        }
      ],
      "name": "setBaseTokenUri",
      "outputs": [],
      "stateMutability": "nonpayable",
      "type": "function"
    },
    {
      "inputs": [
        {
          "internalType": "bool",
          "name": "isPublicMintEnabled_",
          "type": "bool"
        }
      ],
      "name": "setIsPublicMintEnabled",
      "outputs": [],
      "stateMutability": "nonpayable",
      "type": "function"
    },
    {
      "inputs": [
        {
          "internalType": "bool",
          "name": "isWhitelistEnabled_",
          "type": "bool"
        }
      ],
      "name": "setIsWhitelistEnabled",
      "outputs": [],
      "stateMutability": "nonpayable",
      "type": "function"
    },
    {
      "inputs": [
        {
          "internalType": "uint256",
          "name": "newMintPrice",
          "type": "uint256"
        }
      ],
      "name": "setMintPrice",
      "outputs": [],
      "stateMutability": "nonpayable",
      "type": "function"
    },
    {
      "inputs": [
        {
          "internalType": "address payable",
          "name": "newWithdrawWallet",
          "type": "address"
        }
      ],
      "name": "setWithdrawWallet",
      "outputs": [],
      "stateMutability": "nonpayable",
      "type": "function"
    },
    {
      "inputs": [
        {
          "internalType": "bytes4",
          "name": "interfaceId",
          "type": "bytes4"
        }
      ],
      "name": "supportsInterface",
      "outputs": [
        {
          "internalType": "bool",
          "name": "",
          "type": "bool"
        }
      ],
      "stateMutability": "view",
      "type": "function"
    },
    {
      "inputs": [],
      "name": "symbol",
      "outputs": [
        {
          "internalType": "string",
          "name": "",
          "type": "string"
        }
      ],
      "stateMutability": "view",
      "type": "function"
    },
    {
      "inputs": [
        {
          "internalType": "uint256",
          "name": "tokenId_",
          "type": "uint256"
        }
      ],
      "name": "tokenURI",
      "outputs": [
        {
          "internalType": "string",
          "name": "",
          "type": "string"
        }
      ],
      "stateMutability": "view",
      "type": "function"
    },
    {
      "inputs": [],
      "name": "totalBurned",
      "outputs": [
        {
          "internalType": "uint256",
          "name": "",
          "type": "uint256"
        }
      ],
      "stateMutability": "view",
      "type": "function"
    },
    {
      "inputs": [],
      "name": "totalSupply",
      "outputs": [
        {
          "internalType": "uint256",
          "name": "",
          "type": "uint256"
        }
      ],
      "stateMutability": "view",
      "type": "function"
    },
    {
      "inputs": [
        {
          "internalType": "address",
          "name": "from",
          "type": "address"
        },
        {
          "internalType": "address",
          "name": "to",
          "type": "address"
        },
        {
          "internalType": "uint256",
          "name": "tokenId",
          "type": "uint256"
        }
      ],
      "name": "transferFrom",
      "outputs": [],
      "stateMutability": "nonpayable",
      "type": "function"
    },
    {
      "inputs": [
        {
          "internalType": "address",
          "name": "newOwner",
          "type": "address"
        }
      ],
      "name": "transferOwnership",
      "outputs": [],
      "stateMutability": "nonpayable",
      "type": "function"
    },
    {
      "inputs": [
        {
          "internalType": "address",
          "name": "",
          "type": "address"
        }
      ],
      "name": "walletMints",
      "outputs": [
        {
          "internalType": "uint256",
          "name": "",
          "type": "uint256"
        }
      ],
      "stateMutability": "view",
      "type": "function"
    },
    {
      "inputs": [
        {
          "internalType": "address",
          "name": "",
          "type": "address"
        }
      ],
      "name": "whitelist",
      "outputs": [
        {
          "internalType": "bool",
          "name": "",
          "type": "bool"
        }
      ],
      "stateMutability": "view",
      "type": "function"
    },
    {
      "inputs": [],
      "name": "withdraw",
      "outputs": [],
      "stateMutability": "nonpayable",
      "type": "function"
    },
    {
      "inputs": [],
      "name": "withdrawWallet",
      "outputs": [
        {
          "internalType": "address payable",
          "name": "",
          "type": "address"
        }
      ],
      "stateMutability": "view",
      "type": "function"
    }
  ],
  "bytecode": "0x60806040526000601660006101000a81548160ff0219169083151502179055506000601860006101000a81548160ff0219169083151502179055506040518060400160405280600c81526020017f437962657220446567656e7300000000000000000000000000000000000000008152506040518060400160405280600281526020017f43440000000000000000000000000000000000000000000000000000000000008152508160009080519060200190620000be9291906200023e565b508060019080519060200190620000d79291906200023e565b505050620000fa620000ee6200017060201b60201c565b6200017860201b60201c565b66038d7ea4c680006008819055506000600981905550610d05600a81905550610d05600b819055504760158190555033601060006101000a81548173ffffffffffffffffffffffffffffffffffffffff021916908373ffffffffffffffffffffffffffffffffffffffff16021790555062000353565b600033905090565b6000600660009054906101000a900473ffffffffffffffffffffffffffffffffffffffff16905081600660006101000a81548173ffffffffffffffffffffffffffffffffffffffff021916908373ffffffffffffffffffffffffffffffffffffffff1602179055508173ffffffffffffffffffffffffffffffffffffffff168173ffffffffffffffffffffffffffffffffffffffff167f8be0079c531659141344cd1fd0a4f28419497f9722a3daafe3b4186f6b6457e060405160405180910390a35050565b8280546200024c90620002ee565b90600052602060002090601f016020900481019282620002705760008555620002bc565b82601f106200028b57805160ff1916838001178555620002bc565b82800160010185558215620002bc579182015b82811115620002bb5782518255916020019190600101906200029e565b5b509050620002cb9190620002cf565b5090565b5b80821115620002ea576000816000905550600101620002d0565b5090565b600060028204905060018216806200030757607f821691505b602082108114156200031e576200031d62000324565b5b50919050565b7f4e487b7100000000000000000000000000000000000000000000000000000000600052602260045260246000fd5b614a1280620003636000396000f3fe60806040526004361061025c5760003560e01c8063715018a611610144578063a0712d68116100b6578063d5abeb011161007a578063d5abeb01146108c3578063d89135cd146108ee578063e985e9c514610919578063f0293fd314610956578063f2fde38b14610993578063f4a0a528146109bc5761025c565b8063a0712d68146107ed578063a22cb46514610809578063b69ef8a814610832578063b88d4fde1461085d578063c87b56dd146108865761025c565b80638da5cb5b116101085780638da5cb5b146106dd5780638f84aa09146107085780639373f4321461073357806395652cfa1461075c57806395d89b41146107855780639b19251a146107b05761025c565b8063715018a61461060a5780637a0101a2146106215780637f6497831461064c57806383d1c66f1461067557806385d178f4146106b25761025c565b806323b872dd116101dd578063453c2310116101a1578063453c2310146104e6578063548db174146105115780635c975abb1461053a5780636352211e146105655780636817c76c146105a257806370a08231146105cd5761025c565b806323b872dd1461042b5780632890e0d7146104545780633ccfd60b1461047d57806342842e0e1461049457806342966c68146104bd5761025c565b8063095ea7b311610224578063095ea7b31461035a57806318160ddd14610383578063184d69ab146103ae578063194fd7b9146103d95780632373ac22146104025761025c565b80630116bc2d1461026157806301ffc9a71461028c57806302329a29146102c957806306fdde03146102f2578063081812fc1461031d575b600080fd5b34801561026d57600080fd5b506102766109e5565b6040516102839190613d78565b60405180910390f35b34801561029857600080fd5b506102b360048036038101906102ae9190613784565b6109f8565b6040516102c09190613d78565b60405180910390f35b3480156102d557600080fd5b506102f060048036038101906102eb919061375b565b610ada565b005b3480156102fe57600080fd5b50610307610aff565b6040516103149190613d93565b60405180910390f35b34801561032957600080fd5b50610344600480360381019061033f919061381b565b610b91565b6040516103519190613cf6565b60405180910390f35b34801561036657600080fd5b50610381600480360381019061037c91906136de565b610bd7565b005b34801561038f57600080fd5b50610398610cef565b6040516103a59190614075565b60405180910390f35b3480156103ba57600080fd5b506103c3610cf5565b6040516103d09190613d78565b60405180910390f35b3480156103e557600080fd5b5061040060048036038101906103fb919061375b565b610d08565b005b34801561040e57600080fd5b506104296004803603810190610424919061375b565b610d2d565b005b34801561043757600080fd5b50610452600480360381019061044d91906135d8565b610d52565b005b34801561046057600080fd5b5061047b6004803603810190610476919061381b565b610db2565b005b34801561048957600080fd5b50610492610f34565b005b3480156104a057600080fd5b506104bb60048036038101906104b691906135d8565b611036565b005b3480156104c957600080fd5b506104e460048036038101906104df919061381b565b611056565b005b3480156104f257600080fd5b506104fb6110b2565b6040516105089190614075565b60405180910390f35b34801561051d57600080fd5b506105386004803603810190610533919061371a565b6110b8565b005b34801561054657600080fd5b5061054f61117b565b60405161055c9190613d78565b60405180910390f35b34801561057157600080fd5b5061058c6004803603810190610587919061381b565b61118e565b6040516105999190613cf6565b60405180910390f35b3480156105ae57600080fd5b506105b7611215565b6040516105c49190614075565b60405180910390f35b3480156105d957600080fd5b506105f460048036038101906105ef919061354a565b61121b565b6040516106019190614075565b60405180910390f35b34801561061657600080fd5b5061061f6112d3565b005b34801561062d57600080fd5b506106366112e7565b6040516106439190613d93565b60405180910390f35b34801561065857600080fd5b50610673600480360381019061066e919061371a565b611375565b005b34801561068157600080fd5b5061069c6004803603810190610697919061381b565b611438565b6040516106a99190613cf6565b60405180910390f35b3480156106be57600080fd5b506106c761146b565b6040516106d49190613d11565b60405180910390f35b3480156106e957600080fd5b506106f2611491565b6040516106ff9190613cf6565b60405180910390f35b34801561071457600080fd5b5061071d6114bb565b60405161072a9190613cf6565b60405180910390f35b34801561073f57600080fd5b5061075a60048036038101906107559190613573565b6114e1565b005b34801561076857600080fd5b50610783600480360381019061077e91906137d6565b61152d565b005b34801561079157600080fd5b5061079a61154b565b6040516107a79190613d93565b60405180910390f35b3480156107bc57600080fd5b506107d760048036038101906107d2919061354a565b6115dd565b6040516107e49190613d78565b60405180910390f35b6108076004803603810190610802919061381b565b6115fd565b005b34801561081557600080fd5b50610830600480360381019061082b91906136a2565b611928565b005b34801561083e57600080fd5b5061084761193e565b6040516108549190614075565b60405180910390f35b34801561086957600080fd5b50610884600480360381019061087f9190613627565b611944565b005b34801561089257600080fd5b506108ad60048036038101906108a8919061381b565b6119a6565b6040516108ba9190613d93565b60405180910390f35b3480156108cf57600080fd5b506108d8611a22565b6040516108e59190614075565b60405180910390f35b3480156108fa57600080fd5b50610903611a28565b6040516109109190614075565b60405180910390f35b34801561092557600080fd5b50610940600480360381019061093b919061359c565b611a2e565b60405161094d9190613d78565b60405180910390f35b34801561096257600080fd5b5061097d6004803603810190610978919061354a565b611ac2565b60405161098a9190614075565b60405180910390f35b34801561099f57600080fd5b506109ba60048036038101906109b5919061354a565b611ada565b005b3480156109c857600080fd5b506109e360048036038101906109de919061381b565b611b5e565b005b600d60009054906101000a900460ff1681565b60007f80ac58cd000000000000000000000000000000000000000000000000000000007bffffffffffffffffffffffffffffffffffffffffffffffffffffffff1916827bffffffffffffffffffffffffffffffffffffffffffffffffffffffff19161480610ac357507f5b5e139f000000000000000000000000000000000000000000000000000000007bffffffffffffffffffffffffffffffffffffffffffffffffffffffff1916827bffffffffffffffffffffffffffffffffffffffffffffffffffffffff1916145b80610ad35750610ad282611b70565b5b9050919050565b610ae2611bda565b80601660006101000a81548160ff02191690831515021790555050565b606060008054610b0e90614340565b80601f0160208091040260200160405190810160405280929190818152602001828054610b3a90614340565b8015610b875780601f10610b5c57610100808354040283529160200191610b87565b820191906000526020600020905b815481529060010190602001808311610b6a57829003601f168201915b5050505050905090565b6000610b9c82611c58565b6004600083815260200190815260200160002060009054906101000a900473ffffffffffffffffffffffffffffffffffffffff169050919050565b6000610be28261118e565b90508073ffffffffffffffffffffffffffffffffffffffff168373ffffffffffffffffffffffffffffffffffffffff161415610c53576040517f08c379a0000000000000000000000000000000000000000000000000000000008152600401610c4a90613fd5565b60405180910390fd5b8073ffffffffffffffffffffffffffffffffffffffff16610c72611ca3565b73ffffffffffffffffffffffffffffffffffffffff161480610ca15750610ca081610c9b611ca3565b611a2e565b5b610ce0576040517f08c379a0000000000000000000000000000000000000000000000000000000008152600401610cd790613ff5565b60405180910390fd5b610cea8383611cab565b505050565b60095481565b601860009054906101000a900460ff1681565b610d10611bda565b80601860006101000a81548160ff02191690831515021790555050565b610d35611bda565b80600d60006101000a81548160ff02191690831515021790555050565b610d63610d5d611ca3565b82611d64565b610da2576040517f08c379a0000000000000000000000000000000000000000000000000000000008152600401610d9990613dd5565b60405180910390fd5b610dad838383611df9565b505050565b3373ffffffffffffffffffffffffffffffffffffffff16610dd28261118e565b73ffffffffffffffffffffffffffffffffffffffff1614610e28576040517f08c379a0000000000000000000000000000000000000000000000000000000008152600401610e1f90613f95565b60405180910390fd5b60008111610e6b576040517f08c379a0000000000000000000000000000000000000000000000000000000008152600401610e6290613eb5565b60405180910390fd5b807ff6554c3a5d28e08c120b5a69c7edbaf52f935bd2596a60b8a18e282cd257cddb33604051610e9b9190613cf6565b60405180910390a26000610eae826120f3565b806012600084815260200190815260200160002060006101000a81548173ffffffffffffffffffffffffffffffffffffffff021916908373ffffffffffffffffffffffffffffffffffffffff160217905550600c6000815480929190610f13906143a3565b919050555060096000815480929190610f2b90614316565b91905055505050565b610f3c611bda565b600047905060008111610f84576040517f08c379a0000000000000000000000000000000000000000000000000000000008152600401610f7b90613ef5565b60405180910390fd5b8060156000828254610f96919061421a565b92505081905550600f60009054906101000a900473ffffffffffffffffffffffffffffffffffffffff1673ffffffffffffffffffffffffffffffffffffffff166108fc829081150290604051600060405180830381858888f19350505050611033576040517f08c379a000000000000000000000000000000000000000000000000000000000815260040161102a90614035565b60405180910390fd5b50565b61105183838360405180602001604052806000815250611944565b505050565b611067611061611ca3565b82611d64565b6110a6576040517f08c379a000000000000000000000000000000000000000000000000000000000815260040161109d90613dd5565b60405180910390fd5b6110af81612537565b50565b600b5481565b6110c0611bda565b60005b81518110156111775760006017600084848151811061110b577f4e487b7100000000000000000000000000000000000000000000000000000000600052603260045260246000fd5b602002602001015173ffffffffffffffffffffffffffffffffffffffff1673ffffffffffffffffffffffffffffffffffffffff16815260200190815260200160002060006101000a81548160ff021916908315150217905550808061116f906143a3565b9150506110c3565b5050565b601660009054906101000a900460ff1681565b60008061119a83612685565b9050600073ffffffffffffffffffffffffffffffffffffffff168173ffffffffffffffffffffffffffffffffffffffff16141561120c576040517f08c379a000000000000000000000000000000000000000000000000000000000815260040161120390613fb5565b60405180910390fd5b80915050919050565b60085481565b60008073ffffffffffffffffffffffffffffffffffffffff168273ffffffffffffffffffffffffffffffffffffffff16141561128c576040517f08c379a000000000000000000000000000000000000000000000000000000000815260040161128390613f15565b60405180910390fd5b600360008373ffffffffffffffffffffffffffffffffffffffff1673ffffffffffffffffffffffffffffffffffffffff168152602001908152602001600020549050919050565b6112db611bda565b6112e560006126c2565b565b600e80546112f490614340565b80601f016020809104026020016040519081016040528092919081815260200182805461132090614340565b801561136d5780601f106113425761010080835404028352916020019161136d565b820191906000526020600020905b81548152906001019060200180831161135057829003601f168201915b505050505081565b61137d611bda565b60005b8151811015611434576001601760008484815181106113c8577f4e487b7100000000000000000000000000000000000000000000000000000000600052603260045260246000fd5b602002602001015173ffffffffffffffffffffffffffffffffffffffff1673ffffffffffffffffffffffffffffffffffffffff16815260200190815260200160002060006101000a81548160ff021916908315150217905550808061142c906143a3565b915050611380565b5050565b60126020528060005260406000206000915054906101000a900473ffffffffffffffffffffffffffffffffffffffff1681565b600f60009054906101000a900473ffffffffffffffffffffffffffffffffffffffff1681565b6000600660009054906101000a900473ffffffffffffffffffffffffffffffffffffffff16905090565b601060009054906101000a900473ffffffffffffffffffffffffffffffffffffffff1681565b6114e9611bda565b80600f60006101000a81548173ffffffffffffffffffffffffffffffffffffffff021916908373ffffffffffffffffffffffffffffffffffffffff16021790555050565b611535611bda565b8181600e91906115469291906132e1565b505050565b60606001805461155a90614340565b80601f016020809104026020016040519081016040528092919081815260200182805461158690614340565b80156115d35780601f106115a8576101008083540402835291602001916115d3565b820191906000526020600020905b8154815290600101906020018083116115b657829003601f168201915b5050505050905090565b60176020528060005260406000206000915054906101000a900460ff1681565b601660009054906101000a900460ff161561161757600080fd5b6008548161162591906141c0565b3414611666576040517f08c379a000000000000000000000000000000000000000000000000000000000815260040161165d90613db5565b60405180910390fd5b600a5481600954611677919061416a565b11156116b8576040517f08c379a00000000000000000000000000000000000000000000000000000000081526004016116af90613ed5565b60405180910390fd5b600b5481601160003373ffffffffffffffffffffffffffffffffffffffff1673ffffffffffffffffffffffffffffffffffffffff16815260200190815260200160002054611706919061416a565b1115611747576040517f08c379a000000000000000000000000000000000000000000000000000000000815260040161173e90613f55565b60405180910390fd5b601860009054906101000a900460ff16156117e957601760003373ffffffffffffffffffffffffffffffffffffffff1673ffffffffffffffffffffffffffffffffffffffff16815260200190815260200160002060009054906101000a900460ff166117e8576040517f08c379a00000000000000000000000000000000000000000000000000000000081526004016117df90614015565b60405180910390fd5b5b60005b818110156119245760006001600954611805919061416a565b90506009600081548092919061181a906143a3565b9190505550336012600083815260200190815260200160002060006101000a81548173ffffffffffffffffffffffffffffffffffffffff021916908373ffffffffffffffffffffffffffffffffffffffff16021790555061187b3382612788565b601160003373ffffffffffffffffffffffffffffffffffffffff1673ffffffffffffffffffffffffffffffffffffffff16815260200190815260200160002060008154809291906118cb906143a3565b919050555034601560008282546118e2919061416a565b9250508190555060646009541415611910576000600d60006101000a81548160ff0219169083151502179055505b50808061191c906143a3565b9150506117ec565b5050565b61193a611933611ca3565b83836127ff565b5050565b60155481565b61195561194f611ca3565b83611d64565b611994576040517f08c379a000000000000000000000000000000000000000000000000000000000815260040161198b90613dd5565b60405180910390fd5b6119a08484848461296c565b50505050565b60606119b1826129c8565b6119f0576040517f08c379a00000000000000000000000000000000000000000000000000000000081526004016119e790614055565b60405180910390fd5b600e6119fb83612a09565b604051602001611a0c929190613cc7565b6040516020818303038152906040529050919050565b600a5481565b600c5481565b6000600560008473ffffffffffffffffffffffffffffffffffffffff1673ffffffffffffffffffffffffffffffffffffffff16815260200190815260200160002060008373ffffffffffffffffffffffffffffffffffffffff1673ffffffffffffffffffffffffffffffffffffffff16815260200190815260200160002060009054906101000a900460ff16905092915050565b60116020528060005260406000206000915090505481565b611ae2611bda565b600073ffffffffffffffffffffffffffffffffffffffff168173ffffffffffffffffffffffffffffffffffffffff161415611b52576040517f08c379a0000000000000000000000000000000000000000000000000000000008152600401611b4990613e15565b60405180910390fd5b611b5b816126c2565b50565b611b66611bda565b8060088190555050565b60007f01ffc9a7000000000000000000000000000000000000000000000000000000007bffffffffffffffffffffffffffffffffffffffffffffffffffffffff1916827bffffffffffffffffffffffffffffffffffffffffffffffffffffffff1916149050919050565b611be2611ca3565b73ffffffffffffffffffffffffffffffffffffffff16611c00611491565b73ffffffffffffffffffffffffffffffffffffffff1614611c56576040517f08c379a0000000000000000000000000000000000000000000000000000000008152600401611c4d90613f75565b60405180910390fd5b565b611c61816129c8565b611ca0576040517f08c379a0000000000000000000000000000000000000000000000000000000008152600401611c9790613fb5565b60405180910390fd5b50565b600033905090565b816004600083815260200190815260200160002060006101000a81548173ffffffffffffffffffffffffffffffffffffffff021916908373ffffffffffffffffffffffffffffffffffffffff160217905550808273ffffffffffffffffffffffffffffffffffffffff16611d1e8361118e565b73ffffffffffffffffffffffffffffffffffffffff167f8c5be1e5ebec7d5bd14f71427d1e84f3dd0314c0f7b2291e5b200ac8c7c3b92560405160405180910390a45050565b600080611d708361118e565b90508073ffffffffffffffffffffffffffffffffffffffff168473ffffffffffffffffffffffffffffffffffffffff161480611db25750611db18185611a2e565b5b80611df057508373ffffffffffffffffffffffffffffffffffffffff16611dd884610b91565b73ffffffffffffffffffffffffffffffffffffffff16145b91505092915050565b8273ffffffffffffffffffffffffffffffffffffffff16611e198261118e565b73ffffffffffffffffffffffffffffffffffffffff1614611e6f576040517f08c379a0000000000000000000000000000000000000000000000000000000008152600401611e6690613e35565b60405180910390fd5b600073ffffffffffffffffffffffffffffffffffffffff168273ffffffffffffffffffffffffffffffffffffffff161415611edf576040517f08c379a0000000000000000000000000000000000000000000000000000000008152600401611ed690613e75565b60405180910390fd5b611eec8383836001612b2d565b8273ffffffffffffffffffffffffffffffffffffffff16611f0c8261118e565b73ffffffffffffffffffffffffffffffffffffffff1614611f62576040517f08c379a0000000000000000000000000000000000000000000000000000000008152600401611f5990613e35565b60405180910390fd5b6004600082815260200190815260200160002060006101000a81549073ffffffffffffffffffffffffffffffffffffffff02191690556001600360008573ffffffffffffffffffffffffffffffffffffffff1673ffffffffffffffffffffffffffffffffffffffff168152602001908152602001600020600082825403925050819055506001600360008473ffffffffffffffffffffffffffffffffffffffff1673ffffffffffffffffffffffffffffffffffffffff16815260200190815260200160002060008282540192505081905550816002600083815260200190815260200160002060006101000a81548173ffffffffffffffffffffffffffffffffffffffff021916908373ffffffffffffffffffffffffffffffffffffffff160217905550808273ffffffffffffffffffffffffffffffffffffffff168473ffffffffffffffffffffffffffffffffffffffff167fddf252ad1be2c89b69c2b068fc378daa952ba7f163c4a11628f55a4df523b3ef60405160405180910390a46120ee8383836001612c53565b505050565b60006012600083815260200190815260200160002060009054906101000a900473ffffffffffffffffffffffffffffffffffffffff1690506000601360008373ffffffffffffffffffffffffffffffffffffffff1673ffffffffffffffffffffffffffffffffffffffff16815260200190815260200160002060008481526020019081526020016000205490506000601460008473ffffffffffffffffffffffffffffffffffffffff1673ffffffffffffffffffffffffffffffffffffffff1681526020019081526020016000206001601460008673ffffffffffffffffffffffffffffffffffffffff1673ffffffffffffffffffffffffffffffffffffffff16815260200190815260200160002080549050612210919061421a565b81548110612247577f4e487b7100000000000000000000000000000000000000000000000000000000600052603260045260246000fd5b9060005260206000200154905080601460008573ffffffffffffffffffffffffffffffffffffffff1673ffffffffffffffffffffffffffffffffffffffff16815260200190815260200160002083815481106122cc577f4e487b7100000000000000000000000000000000000000000000000000000000600052603260045260246000fd5b9060005260206000200181905550601460008473ffffffffffffffffffffffffffffffffffffffff1673ffffffffffffffffffffffffffffffffffffffff16815260200190815260200160002080548061234f577f4e487b7100000000000000000000000000000000000000000000000000000000600052603160045260246000fd5b600190038181906000526020600020016000905590556000601460008573ffffffffffffffffffffffffffffffffffffffff1673ffffffffffffffffffffffffffffffffffffffff1681526020019081526020016000208054905011156124db576000601460008573ffffffffffffffffffffffffffffffffffffffff1673ffffffffffffffffffffffffffffffffffffffff1681526020019081526020016000206001601460008773ffffffffffffffffffffffffffffffffffffffff1673ffffffffffffffffffffffffffffffffffffffff16815260200190815260200160002080549050612440919061421a565b81548110612477577f4e487b7100000000000000000000000000000000000000000000000000000000600052603260045260246000fd5b9060005260206000200154905082601360008673ffffffffffffffffffffffffffffffffffffffff1673ffffffffffffffffffffffffffffffffffffffff168152602001908152602001600020600083815260200190815260200160002081905550505b6000601360008573ffffffffffffffffffffffffffffffffffffffff1673ffffffffffffffffffffffffffffffffffffffff16815260200190815260200160002060008681526020019081526020016000208190555050505050565b60006125428261118e565b9050612552816000846001612b2d565b61255b8261118e565b90506004600083815260200190815260200160002060006101000a81549073ffffffffffffffffffffffffffffffffffffffff02191690556001600360008373ffffffffffffffffffffffffffffffffffffffff1673ffffffffffffffffffffffffffffffffffffffff168152602001908152602001600020600082825403925050819055506002600083815260200190815260200160002060006101000a81549073ffffffffffffffffffffffffffffffffffffffff021916905581600073ffffffffffffffffffffffffffffffffffffffff168273ffffffffffffffffffffffffffffffffffffffff167fddf252ad1be2c89b69c2b068fc378daa952ba7f163c4a11628f55a4df523b3ef60405160405180910390a4612681816000846001612c53565b5050565b60006002600083815260200190815260200160002060009054906101000a900473ffffffffffffffffffffffffffffffffffffffff169050919050565b6000600660009054906101000a900473ffffffffffffffffffffffffffffffffffffffff16905081600660006101000a81548173ffffffffffffffffffffffffffffffffffffffff021916908373ffffffffffffffffffffffffffffffffffffffff1602179055508173ffffffffffffffffffffffffffffffffffffffff168173ffffffffffffffffffffffffffffffffffffffff167f8be0079c531659141344cd1fd0a4f28419497f9722a3daafe3b4186f6b6457e060405160405180910390a35050565b6127928282612c59565b600161279d8361121b565b6127a7919061421a565b601360008473ffffffffffffffffffffffffffffffffffffffff1673ffffffffffffffffffffffffffffffffffffffff1681526020019081526020016000206000838152602001908152602001600020819055505050565b8173ffffffffffffffffffffffffffffffffffffffff168373ffffffffffffffffffffffffffffffffffffffff16141561286e576040517f08c379a000000000000000000000000000000000000000000000000000000000815260040161286590613e95565b60405180910390fd5b80600560008573ffffffffffffffffffffffffffffffffffffffff1673ffffffffffffffffffffffffffffffffffffffff16815260200190815260200160002060008473ffffffffffffffffffffffffffffffffffffffff1673ffffffffffffffffffffffffffffffffffffffff16815260200190815260200160002060006101000a81548160ff0219169083151502179055508173ffffffffffffffffffffffffffffffffffffffff168373ffffffffffffffffffffffffffffffffffffffff167f17307eab39ab6107e8899845ad3d59bd9653f200f220920489ca2b5937696c318360405161295f9190613d78565b60405180910390a3505050565b612977848484611df9565b61298384848484612c77565b6129c2576040517f08c379a00000000000000000000000000000000000000000000000000000000081526004016129b990613df5565b60405180910390fd5b50505050565b60008073ffffffffffffffffffffffffffffffffffffffff166129ea83612685565b73ffffffffffffffffffffffffffffffffffffffff1614159050919050565b606060006001612a1884612e0e565b01905060008167ffffffffffffffff811115612a5d577f4e487b7100000000000000000000000000000000000000000000000000000000600052604160045260246000fd5b6040519080825280601f01601f191660200182016040528015612a8f5781602001600182028036833780820191505090505b509050600082602001820190505b600115612b22578080600190039150507f3031323334353637383961626364656600000000000000000000000000000000600a86061a8153600a8581612b0c577f4e487b7100000000000000000000000000000000000000000000000000000000600052601260045260246000fd5b0494506000851415612b1d57612b22565b612a9d565b819350505050919050565b6001811115612c4d57600073ffffffffffffffffffffffffffffffffffffffff168473ffffffffffffffffffffffffffffffffffffffff1614612bc15780600360008673ffffffffffffffffffffffffffffffffffffffff1673ffffffffffffffffffffffffffffffffffffffff1681526020019081526020016000206000828254612bb9919061421a565b925050819055505b600073ffffffffffffffffffffffffffffffffffffffff168373ffffffffffffffffffffffffffffffffffffffff1614612c4c5780600360008573ffffffffffffffffffffffffffffffffffffffff1673ffffffffffffffffffffffffffffffffffffffff1681526020019081526020016000206000828254612c44919061416a565b925050819055505b5b50505050565b50505050565b612c73828260405180602001604052806000815250613045565b5050565b6000612c988473ffffffffffffffffffffffffffffffffffffffff166130a0565b15612e01578373ffffffffffffffffffffffffffffffffffffffff1663150b7a02612cc1611ca3565b8786866040518563ffffffff1660e01b8152600401612ce39493929190613d2c565b602060405180830381600087803b158015612cfd57600080fd5b505af1925050508015612d2e57506040513d601f19601f82011682018060405250810190612d2b91906137ad565b60015b612db1573d8060008114612d5e576040519150601f19603f3d011682016040523d82523d6000602084013e612d63565b606091505b50600081511415612da9576040517f08c379a0000000000000000000000000000000000000000000000000000000008152600401612da090613df5565b60405180910390fd5b805181602001fd5b63150b7a0260e01b7bffffffffffffffffffffffffffffffffffffffffffffffffffffffff1916817bffffffffffffffffffffffffffffffffffffffffffffffffffffffff191614915050612e06565b600190505b949350505050565b600080600090507a184f03e93ff9f4daa797ed6e38ed64bf6a1f0100000000000000008310612e92577a184f03e93ff9f4daa797ed6e38ed64bf6a1f0100000000000000008381612e88577f4e487b7100000000000000000000000000000000000000000000000000000000600052601260045260246000fd5b0492506040810190505b6d04ee2d6d415b85acef81000000008310612ef5576d04ee2d6d415b85acef81000000008381612eeb577f4e487b7100000000000000000000000000000000000000000000000000000000600052601260045260246000fd5b0492506020810190505b662386f26fc100008310612f4a57662386f26fc100008381612f40577f4e487b7100000000000000000000000000000000000000000000000000000000600052601260045260246000fd5b0492506010810190505b6305f5e1008310612f99576305f5e1008381612f8f577f4e487b7100000000000000000000000000000000000000000000000000000000600052601260045260246000fd5b0492506008810190505b6127108310612fe4576127108381612fda577f4e487b7100000000000000000000000000000000000000000000000000000000600052601260045260246000fd5b0492506004810190505b6064831061302d5760648381613023577f4e487b7100000000000000000000000000000000000000000000000000000000600052601260045260246000fd5b0492506002810190505b600a831061303c576001810190505b80915050919050565b61304f83836130c3565b61305c6000848484612c77565b61309b576040517f08c379a000000000000000000000000000000000000000000000000000000000815260040161309290613df5565b60405180910390fd5b505050565b6000808273ffffffffffffffffffffffffffffffffffffffff163b119050919050565b600073ffffffffffffffffffffffffffffffffffffffff168273ffffffffffffffffffffffffffffffffffffffff161415613133576040517f08c379a000000000000000000000000000000000000000000000000000000000815260040161312a90613f35565b60405180910390fd5b61313c816129c8565b1561317c576040517f08c379a000000000000000000000000000000000000000000000000000000000815260040161317390613e55565b60405180910390fd5b61318a600083836001612b2d565b613193816129c8565b156131d3576040517f08c379a00000000000000000000000000000000000000000000000000000000081526004016131ca90613e55565b60405180910390fd5b6001600360008473ffffffffffffffffffffffffffffffffffffffff1673ffffffffffffffffffffffffffffffffffffffff16815260200190815260200160002060008282540192505081905550816002600083815260200190815260200160002060006101000a81548173ffffffffffffffffffffffffffffffffffffffff021916908373ffffffffffffffffffffffffffffffffffffffff160217905550808273ffffffffffffffffffffffffffffffffffffffff16600073ffffffffffffffffffffffffffffffffffffffff167fddf252ad1be2c89b69c2b068fc378daa952ba7f163c4a11628f55a4df523b3ef60405160405180910390a46132dd600083836001612c53565b5050565b8280546132ed90614340565b90600052602060002090601f01602090048101928261330f5760008555613356565b82601f1061332857803560ff1916838001178555613356565b82800160010185558215613356579182015b8281111561335557823582559160200191906001019061333a565b5b5090506133639190613367565b5090565b5b80821115613380576000816000905550600101613368565b5090565b6000613397613392846140b5565b614090565b905080838252602082019050828560208602820111156133b657600080fd5b60005b858110156133e657816133cc888261342e565b8452602084019350602083019250506001810190506133b9565b5050509392505050565b60006134036133fe846140e1565b614090565b90508281526020810184848401111561341b57600080fd5b6134268482856142d4565b509392505050565b60008135905061343d81614969565b92915050565b60008135905061345281614980565b92915050565b600082601f83011261346957600080fd5b8135613479848260208601613384565b91505092915050565b60008135905061349181614997565b92915050565b6000813590506134a6816149ae565b92915050565b6000815190506134bb816149ae565b92915050565b600082601f8301126134d257600080fd5b81356134e28482602086016133f0565b91505092915050565b60008083601f8401126134fd57600080fd5b8235905067ffffffffffffffff81111561351657600080fd5b60208301915083600182028301111561352e57600080fd5b9250929050565b600081359050613544816149c5565b92915050565b60006020828403121561355c57600080fd5b600061356a8482850161342e565b91505092915050565b60006020828403121561358557600080fd5b600061359384828501613443565b91505092915050565b600080604083850312156135af57600080fd5b60006135bd8582860161342e565b92505060206135ce8582860161342e565b9150509250929050565b6000806000606084860312156135ed57600080fd5b60006135fb8682870161342e565b935050602061360c8682870161342e565b925050604061361d86828701613535565b9150509250925092565b6000806000806080858703121561363d57600080fd5b600061364b8782880161342e565b945050602061365c8782880161342e565b935050604061366d87828801613535565b925050606085013567ffffffffffffffff81111561368a57600080fd5b613696878288016134c1565b91505092959194509250565b600080604083850312156136b557600080fd5b60006136c38582860161342e565b92505060206136d485828601613482565b9150509250929050565b600080604083850312156136f157600080fd5b60006136ff8582860161342e565b925050602061371085828601613535565b9150509250929050565b60006020828403121561372c57600080fd5b600082013567ffffffffffffffff81111561374657600080fd5b61375284828501613458565b91505092915050565b60006020828403121561376d57600080fd5b600061377b84828501613482565b91505092915050565b60006020828403121561379657600080fd5b60006137a484828501613497565b91505092915050565b6000602082840312156137bf57600080fd5b60006137cd848285016134ac565b91505092915050565b600080602083850312156137e957600080fd5b600083013567ffffffffffffffff81111561380357600080fd5b61380f858286016134eb565b92509250509250929050565b60006020828403121561382d57600080fd5b600061383b84828501613535565b91505092915050565b61384d81614260565b82525050565b61385c8161424e565b82525050565b61386b81614272565b82525050565b600061387c82614127565b613886818561413d565b93506138968185602086016142e3565b61389f81614479565b840191505092915050565b60006138b582614132565b6138bf818561414e565b93506138cf8185602086016142e3565b6138d881614479565b840191505092915050565b60006138ee82614132565b6138f8818561415f565b93506139088185602086016142e3565b80840191505092915050565b6000815461392181614340565b61392b818661415f565b9450600182166000811461394657600181146139575761398a565b60ff1983168652818601935061398a565b61396085614112565b60005b8381101561398257815481890152600182019150602081019050613963565b838801955050505b50505092915050565b60006139a060108361414e565b91506139ab8261448a565b602082019050919050565b60006139c3602d8361414e565b91506139ce826144b3565b604082019050919050565b60006139e660328361414e565b91506139f182614502565b604082019050919050565b6000613a0960268361414e565b9150613a1482614551565b604082019050919050565b6000613a2c60258361414e565b9150613a37826145a0565b604082019050919050565b6000613a4f601c8361414e565b9150613a5a826145ef565b602082019050919050565b6000613a7260248361414e565b9150613a7d82614618565b604082019050919050565b6000613a9560198361414e565b9150613aa082614667565b602082019050919050565b6000613ab8601f8361414e565b9150613ac382614690565b602082019050919050565b6000613adb60088361414e565b9150613ae6826146b9565b602082019050919050565b6000613afe60158361414e565b9150613b09826146e2565b602082019050919050565b6000613b2160298361414e565b9150613b2c8261470b565b604082019050919050565b6000613b4460208361414e565b9150613b4f8261475a565b602082019050919050565b6000613b6760058361415f565b9150613b7282614783565b600582019050919050565b6000613b8a60118361414e565b9150613b95826147ac565b602082019050919050565b6000613bad60208361414e565b9150613bb8826147d5565b602082019050919050565b6000613bd060198361414e565b9150613bdb826147fe565b602082019050919050565b6000613bf360188361414e565b9150613bfe82614827565b602082019050919050565b6000613c1660218361414e565b9150613c2182614850565b604082019050919050565b6000613c39603d8361414e565b9150613c448261489f565b604082019050919050565b6000613c5c600f8361414e565b9150613c67826148ee565b602082019050919050565b6000613c7f60118361414e565b9150613c8a82614917565b602082019050919050565b6000613ca260158361414e565b9150613cad82614940565b602082019050919050565b613cc1816142ca565b82525050565b6000613cd38285613914565b9150613cdf82846138e3565b9150613cea82613b5a565b91508190509392505050565b6000602082019050613d0b6000830184613853565b92915050565b6000602082019050613d266000830184613844565b92915050565b6000608082019050613d416000830187613853565b613d4e6020830186613853565b613d5b6040830185613cb8565b8181036060830152613d6d8184613871565b905095945050505050565b6000602082019050613d8d6000830184613862565b92915050565b60006020820190508181036000830152613dad81846138aa565b905092915050565b60006020820190508181036000830152613dce81613993565b9050919050565b60006020820190508181036000830152613dee816139b6565b9050919050565b60006020820190508181036000830152613e0e816139d9565b9050919050565b60006020820190508181036000830152613e2e816139fc565b9050919050565b60006020820190508181036000830152613e4e81613a1f565b9050919050565b60006020820190508181036000830152613e6e81613a42565b9050919050565b60006020820190508181036000830152613e8e81613a65565b9050919050565b60006020820190508181036000830152613eae81613a88565b9050919050565b60006020820190508181036000830152613ece81613aab565b9050919050565b60006020820190508181036000830152613eee81613ace565b9050919050565b60006020820190508181036000830152613f0e81613af1565b9050919050565b60006020820190508181036000830152613f2e81613b14565b9050919050565b60006020820190508181036000830152613f4e81613b37565b9050919050565b60006020820190508181036000830152613f6e81613b7d565b9050919050565b60006020820190508181036000830152613f8e81613ba0565b9050919050565b60006020820190508181036000830152613fae81613bc3565b9050919050565b60006020820190508181036000830152613fce81613be6565b9050919050565b60006020820190508181036000830152613fee81613c09565b9050919050565b6000602082019050818103600083015261400e81613c2c565b9050919050565b6000602082019050818103600083015261402e81613c4f565b9050919050565b6000602082019050818103600083015261404e81613c72565b9050919050565b6000602082019050818103600083015261406e81613c95565b9050919050565b600060208201905061408a6000830184613cb8565b92915050565b600061409a6140ab565b90506140a68282614372565b919050565b6000604051905090565b600067ffffffffffffffff8211156140d0576140cf61444a565b5b602082029050602081019050919050565b600067ffffffffffffffff8211156140fc576140fb61444a565b5b61410582614479565b9050602081019050919050565b60008190508160005260206000209050919050565b600081519050919050565b600081519050919050565b600082825260208201905092915050565b600082825260208201905092915050565b600081905092915050565b6000614175826142ca565b9150614180836142ca565b9250827fffffffffffffffffffffffffffffffffffffffffffffffffffffffffffffffff038211156141b5576141b46143ec565b5b828201905092915050565b60006141cb826142ca565b91506141d6836142ca565b9250817fffffffffffffffffffffffffffffffffffffffffffffffffffffffffffffffff048311821515161561420f5761420e6143ec565b5b828202905092915050565b6000614225826142ca565b9150614230836142ca565b925082821015614243576142426143ec565b5b828203905092915050565b6000614259826142aa565b9050919050565b600061426b826142aa565b9050919050565b60008115159050919050565b60007fffffffff0000000000000000000000000000000000000000000000000000000082169050919050565b600073ffffffffffffffffffffffffffffffffffffffff82169050919050565b6000819050919050565b82818337600083830152505050565b60005b838110156143015780820151818401526020810190506142e6565b83811115614310576000848401525b50505050565b6000614321826142ca565b91506000821415614335576143346143ec565b5b600182039050919050565b6000600282049050600182168061435857607f821691505b6020821081141561436c5761436b61441b565b5b50919050565b61437b82614479565b810181811067ffffffffffffffff8211171561439a5761439961444a565b5b80604052505050565b60006143ae826142ca565b91507fffffffffffffffffffffffffffffffffffffffffffffffffffffffffffffffff8214156143e1576143e06143ec565b5b600182019050919050565b7f4e487b7100000000000000000000000000000000000000000000000000000000600052601160045260246000fd5b7f4e487b7100000000000000000000000000000000000000000000000000000000600052602260045260246000fd5b7f4e487b7100000000000000000000000000000000000000000000000000000000600052604160045260246000fd5b6000601f19601f8301169050919050565b7f77726f6e67206d696e742076616c756500000000000000000000000000000000600082015250565b7f4552433732313a2063616c6c6572206973206e6f7420746f6b656e206f776e6560008201527f72206f7220617070726f76656400000000000000000000000000000000000000602082015250565b7f4552433732313a207472616e7366657220746f206e6f6e20455243373231526560008201527f63656976657220696d706c656d656e7465720000000000000000000000000000602082015250565b7f4f776e61626c653a206e6577206f776e657220697320746865207a65726f206160008201527f6464726573730000000000000000000000000000000000000000000000000000602082015250565b7f4552433732313a207472616e736665722066726f6d20696e636f72726563742060008201527f6f776e6572000000000000000000000000000000000000000000000000000000602082015250565b7f4552433732313a20746f6b656e20616c7265616479206d696e74656400000000600082015250565b7f4552433732313a207472616e7366657220746f20746865207a65726f2061646460008201527f7265737300000000000000000000000000000000000000000000000000000000602082015250565b7f4552433732313a20617070726f766520746f2063616c6c657200000000000000600082015250565b7f546f6b656e204944206d7573742062652067726561746572207468616e203000600082015250565b7f736f6c64206f7574000000000000000000000000000000000000000000000000600082015250565b7f436f6e74726163742062616c616e636520697320300000000000000000000000600082015250565b7f4552433732313a2061646472657373207a65726f206973206e6f74206120766160008201527f6c6964206f776e65720000000000000000000000000000000000000000000000602082015250565b7f4552433732313a206d696e7420746f20746865207a65726f2061646472657373600082015250565b7f2e6a736f6e000000000000000000000000000000000000000000000000000000600082015250565b7f657863656564206d61782077616c6c6574000000000000000000000000000000600082015250565b7f4f776e61626c653a2063616c6c6572206973206e6f7420746865206f776e6572600082015250565b7f4f6e6c79206f776e65722063616e206275726e2061204e465400000000000000600082015250565b7f4552433732313a20696e76616c696420746f6b656e2049440000000000000000600082015250565b7f4552433732313a20617070726f76616c20746f2063757272656e74206f776e6560008201527f7200000000000000000000000000000000000000000000000000000000000000602082015250565b7f4552433732313a20617070726f76652063616c6c6572206973206e6f7420746f60008201527f6b656e206f776e6572206f7220617070726f76656420666f7220616c6c000000602082015250565b7f6e6f742077686974656c69737465640000000000000000000000000000000000600082015250565b7f5769746864726177616c206661696c6564000000000000000000000000000000600082015250565b7f546f6b656e20646f6573206e6f74206578697374210000000000000000000000600082015250565b6149728161424e565b811461497d57600080fd5b50565b61498981614260565b811461499457600080fd5b50565b6149a081614272565b81146149ab57600080fd5b50565b6149b78161427e565b81146149c257600080fd5b50565b6149ce816142ca565b81146149d957600080fd5b5056fea26469706673582212203f0f5219a5815a45d03cd5e936192d77c800f1a6bf253ef4f763d91f5fdaf15264736f6c63430008010033",
  "linkReferences": {},
  "deployedLinkReferences": {}
}