{
  "_format": "hh-sol-artifact-1",
  "contractName": "CyberDegensNFT",
  "sourceName": "contracts/CyberDegensNFT.sol",
  "abi": [
    {
      "inputs": [],
      "stateMutability": "payable",
      "type": "constructor"
    },
    {
      "anonymous": false,
      "inputs": [
        {
          "indexed": true,
          "internalType": "address",
          "name": "owner",
          "type": "address"
        },
        {
          "indexed": true,
          "internalType": "address",
          "name": "approved",
          "type": "address"
        },
        {
          "indexed": true,
          "internalType": "uint256",
          "name": "tokenId",
          "type": "uint256"
        }
      ],
      "name": "Approval",
      "type": "event"
    },
    {
      "anonymous": false,
      "inputs": [
        {
          "indexed": true,
          "internalType": "address",
          "name": "owner",
          "type": "address"
        },
        {
          "indexed": true,
          "internalType": "address",
          "name": "operator",
          "type": "address"
        },
        {
          "indexed": false,
          "internalType": "bool",
          "name": "approved",
          "type": "bool"
        }
      ],
      "name": "ApprovalForAll",
      "type": "event"
    },
    {
      "anonymous": false,
      "inputs": [
        {
          "indexed": true,
          "internalType": "address",
          "name": "previousOwner",
          "type": "address"
        },
        {
          "indexed": true,
          "internalType": "address",
          "name": "newOwner",
          "type": "address"
        }
      ],
      "name": "OwnershipTransferred",
      "type": "event"
    },
    {
      "anonymous": false,
      "inputs": [
        {
          "indexed": true,
          "internalType": "address",
          "name": "from",
          "type": "address"
        },
        {
          "indexed": true,
          "internalType": "address",
          "name": "to",
          "type": "address"
        },
        {
          "indexed": true,
          "internalType": "uint256",
          "name": "tokenId",
          "type": "uint256"
        }
      ],
      "name": "Transfer",
      "type": "event"
    },
    {
      "inputs": [
        {
          "internalType": "address[]",
          "name": "addresses_",
          "type": "address[]"
        }
      ],
      "name": "addToWhitelist",
      "outputs": [],
      "stateMutability": "nonpayable",
      "type": "function"
    },
    {
      "inputs": [
        {
          "internalType": "address",
          "name": "to",
          "type": "address"
        },
        {
          "internalType": "uint256",
          "name": "tokenId",
          "type": "uint256"
        }
      ],
      "name": "approve",
      "outputs": [],
      "stateMutability": "nonpayable",
      "type": "function"
    },
    {
      "inputs": [],
      "name": "balance",
      "outputs": [
        {
          "internalType": "uint256",
          "name": "",
          "type": "uint256"
        }
      ],
      "stateMutability": "view",
      "type": "function"
    },
    {
      "inputs": [
        {
          "internalType": "address",
          "name": "owner",
          "type": "address"
        }
      ],
      "name": "balanceOf",
      "outputs": [
        {
          "internalType": "uint256",
          "name": "",
          "type": "uint256"
        }
      ],
      "stateMutability": "view",
      "type": "function"
    },
    {
      "inputs": [],
      "name": "baseTokenUri",
      "outputs": [
        {
          "internalType": "string",
          "name": "",
          "type": "string"
        }
      ],
      "stateMutability": "view",
      "type": "function"
    },
    {
      "inputs": [
        {
          "internalType": "uint256",
          "name": "tokenId",
          "type": "uint256"
        }
      ],
      "name": "burn",
      "outputs": [],
      "stateMutability": "nonpayable",
      "type": "function"
    },
    {
      "inputs": [
        {
          "internalType": "uint256",
          "name": "tokenId",
          "type": "uint256"
        }
      ],
      "name": "getApproved",
      "outputs": [
        {
          "internalType": "address",
          "name": "",
          "type": "address"
        }
      ],
      "stateMutability": "view",
      "type": "function"
    },
    {
      "inputs": [
        {
          "internalType": "address",
          "name": "owner",
          "type": "address"
        },
        {
          "internalType": "address",
          "name": "operator",
          "type": "address"
        }
      ],
      "name": "isApprovedForAll",
      "outputs": [
        {
          "internalType": "bool",
          "name": "",
          "type": "bool"
        }
      ],
      "stateMutability": "view",
      "type": "function"
    },
    {
      "inputs": [],
      "name": "isPublicMintEnabled",
      "outputs": [
        {
          "internalType": "bool",
          "name": "",
          "type": "bool"
        }
      ],
      "stateMutability": "view",
      "type": "function"
    },
    {
      "inputs": [],
      "name": "isWhitelistEnabled",
      "outputs": [
        {
          "internalType": "bool",
          "name": "",
          "type": "bool"
        }
      ],
      "stateMutability": "view",
      "type": "function"
    },
    {
      "inputs": [],
      "name": "maxPerWallet",
      "outputs": [
        {
          "internalType": "uint256",
          "name": "",
          "type": "uint256"
        }
      ],
      "stateMutability": "view",
      "type": "function"
    },
    {
      "inputs": [],
      "name": "maxSupply",
      "outputs": [
        {
          "internalType": "uint256",
          "name": "",
          "type": "uint256"
        }
      ],
      "stateMutability": "view",
      "type": "function"
    },
    {
      "inputs": [
        {
          "internalType": "uint256",
          "name": "quantity_",
          "type": "uint256"
        }
      ],
      "name": "mint",
      "outputs": [],
      "stateMutability": "payable",
      "type": "function"
    },
    {
      "inputs": [],
      "name": "mintPrice",
      "outputs": [
        {
          "internalType": "uint256",
          "name": "",
          "type": "uint256"
        }
      ],
      "stateMutability": "view",
      "type": "function"
    },
    {
      "inputs": [],
      "name": "mintStopValue",
      "outputs": [
        {
          "internalType": "uint256",
          "name": "",
          "type": "uint256"
        }
      ],
      "stateMutability": "view",
      "type": "function"
    },
    {
      "inputs": [],
      "name": "name",
      "outputs": [
        {
          "internalType": "string",
          "name": "",
          "type": "string"
        }
      ],
      "stateMutability": "view",
      "type": "function"
    },
    {
      "inputs": [],
      "name": "owner",
      "outputs": [
        {
          "internalType": "address",
          "name": "",
          "type": "address"
        }
      ],
      "stateMutability": "view",
      "type": "function"
    },
    {
      "inputs": [],
      "name": "ownerAddress",
      "outputs": [
        {
          "internalType": "address",
          "name": "",
          "type": "address"
        }
      ],
      "stateMutability": "view",
      "type": "function"
    },
    {
      "inputs": [
        {
          "internalType": "uint256",
          "name": "tokenId",
          "type": "uint256"
        }
      ],
      "name": "ownerOf",
      "outputs": [
        {
          "internalType": "address",
          "name": "",
          "type": "address"
        }
      ],
      "stateMutability": "view",
      "type": "function"
    },
    {
      "inputs": [
        {
          "internalType": "bool",
          "name": "_state",
          "type": "bool"
        }
      ],
      "name": "pause",
      "outputs": [],
      "stateMutability": "nonpayable",
      "type": "function"
    },
    {
      "inputs": [],
      "name": "paused",
      "outputs": [
        {
          "internalType": "bool",
          "name": "",
          "type": "bool"
        }
      ],
      "stateMutability": "view",
      "type": "function"
    },
    {
      "inputs": [
        {
          "internalType": "address[]",
          "name": "addresses_",
          "type": "address[]"
        }
      ],
      "name": "removeFromWhitelist",
      "outputs": [],
      "stateMutability": "nonpayable",
      "type": "function"
    },
    {
      "inputs": [],
      "name": "renounceOwnership",
      "outputs": [],
      "stateMutability": "nonpayable",
      "type": "function"
    },
    {
      "inputs": [
        {
          "internalType": "address",
          "name": "from",
          "type": "address"
        },
        {
          "internalType": "address",
          "name": "to",
          "type": "address"
        },
        {
          "internalType": "uint256",
          "name": "tokenId",
          "type": "uint256"
        }
      ],
      "name": "safeTransferFrom",
      "outputs": [],
      "stateMutability": "nonpayable",
      "type": "function"
    },
    {
      "inputs": [
        {
          "internalType": "address",
          "name": "from",
          "type": "address"
        },
        {
          "internalType": "address",
          "name": "to",
          "type": "address"
        },
        {
          "internalType": "uint256",
          "name": "tokenId",
          "type": "uint256"
        },
        {
          "internalType": "bytes",
          "name": "data",
          "type": "bytes"
        }
      ],
      "name": "safeTransferFrom",
      "outputs": [],
      "stateMutability": "nonpayable",
      "type": "function"
    },
    {
      "inputs": [
        {
          "internalType": "address",
          "name": "operator",
          "type": "address"
        },
        {
          "internalType": "bool",
          "name": "approved",
          "type": "bool"
        }
      ],
      "name": "setApprovalForAll",
      "outputs": [],
      "stateMutability": "nonpayable",
      "type": "function"
    },
    {
      "inputs": [
        {
          "internalType": "string",
          "name": "baseTokenUri_",
          "type": "string"
        }
      ],
      "name": "setBaseTokenUri",
      "outputs": [],
      "stateMutability": "nonpayable",
      "type": "function"
    },
    {
      "inputs": [
        {
          "internalType": "bool",
          "name": "isPublicMintEnabled_",
          "type": "bool"
        }
      ],
      "name": "setIsPublicMintEnabled",
      "outputs": [],
      "stateMutability": "nonpayable",
      "type": "function"
    },
    {
      "inputs": [
        {
          "internalType": "bool",
          "name": "isWhitelistEnabled_",
          "type": "bool"
        }
      ],
      "name": "setIsWhitelistEnabled",
      "outputs": [],
      "stateMutability": "nonpayable",
      "type": "function"
    },
    {
      "inputs": [
        {
          "internalType": "uint256",
          "name": "newMaxPerWallet",
          "type": "uint256"
        }
      ],
      "name": "setMaxPerWallet",
      "outputs": [],
      "stateMutability": "nonpayable",
      "type": "function"
    },
    {
      "inputs": [
        {
          "internalType": "uint256",
          "name": "newMintPrice",
          "type": "uint256"
        }
      ],
      "name": "setMintPrice",
      "outputs": [],
      "stateMutability": "nonpayable",
      "type": "function"
    },
    {
      "inputs": [
        {
          "internalType": "uint256",
          "name": "newMintStopValue",
          "type": "uint256"
        }
      ],
      "name": "setMintStopValue",
      "outputs": [],
      "stateMutability": "nonpayable",
      "type": "function"
    },
    {
      "inputs": [
        {
          "internalType": "address payable",
          "name": "newWithdrawWallet",
          "type": "address"
        }
      ],
      "name": "setWithdrawWallet",
      "outputs": [],
      "stateMutability": "nonpayable",
      "type": "function"
    },
    {
      "inputs": [
        {
          "internalType": "bytes4",
          "name": "interfaceId",
          "type": "bytes4"
        }
      ],
      "name": "supportsInterface",
      "outputs": [
        {
          "internalType": "bool",
          "name": "",
          "type": "bool"
        }
      ],
      "stateMutability": "view",
      "type": "function"
    },
    {
      "inputs": [],
      "name": "symbol",
      "outputs": [
        {
          "internalType": "string",
          "name": "",
          "type": "string"
        }
      ],
      "stateMutability": "view",
      "type": "function"
    },
    {
      "inputs": [
        {
          "internalType": "uint256",
          "name": "tokenId_",
          "type": "uint256"
        }
      ],
      "name": "tokenURI",
      "outputs": [
        {
          "internalType": "string",
          "name": "",
          "type": "string"
        }
      ],
      "stateMutability": "view",
      "type": "function"
    },
    {
      "inputs": [],
      "name": "totalBurned",
      "outputs": [
        {
          "internalType": "uint256",
          "name": "",
          "type": "uint256"
        }
      ],
      "stateMutability": "view",
      "type": "function"
    },
    {
      "inputs": [],
      "name": "totalSupply",
      "outputs": [
        {
          "internalType": "uint256",
          "name": "",
          "type": "uint256"
        }
      ],
      "stateMutability": "view",
      "type": "function"
    },
    {
      "inputs": [
        {
          "internalType": "address",
          "name": "from",
          "type": "address"
        },
        {
          "internalType": "address",
          "name": "to",
          "type": "address"
        },
        {
          "internalType": "uint256",
          "name": "tokenId",
          "type": "uint256"
        }
      ],
      "name": "transferFrom",
      "outputs": [],
      "stateMutability": "nonpayable",
      "type": "function"
    },
    {
      "inputs": [
        {
          "internalType": "address",
          "name": "newOwner",
          "type": "address"
        }
      ],
      "name": "transferOwnership",
      "outputs": [],
      "stateMutability": "nonpayable",
      "type": "function"
    },
    {
      "inputs": [
        {
          "internalType": "address",
          "name": "",
          "type": "address"
        }
      ],
      "name": "walletMints",
      "outputs": [
        {
          "internalType": "uint256",
          "name": "",
          "type": "uint256"
        }
      ],
      "stateMutability": "view",
      "type": "function"
    },
    {
      "inputs": [
        {
          "internalType": "address",
          "name": "",
          "type": "address"
        }
      ],
      "name": "whitelist",
      "outputs": [
        {
          "internalType": "bool",
          "name": "",
          "type": "bool"
        }
      ],
      "stateMutability": "view",
      "type": "function"
    },
    {
      "inputs": [],
      "name": "withdraw",
      "outputs": [],
      "stateMutability": "nonpayable",
      "type": "function"
    },
    {
      "inputs": [],
      "name": "withdrawWallet",
      "outputs": [
        {
          "internalType": "address payable",
          "name": "",
          "type": "address"
        }
      ],
      "stateMutability": "view",
      "type": "function"
    }
  ],
  "bytecode": "0x60806040526000600f60016101000a81548160ff0219169083151502179055506000600f60026101000a81548160ff0219169083151502179055506040518060400160405280600c81526020017f437962657220446567656e7300000000000000000000000000000000000000008152506040518060400160405280600281526020017f43440000000000000000000000000000000000000000000000000000000000008152508160009080519060200190620000be9291906200023f565b508060019080519060200190620000d79291906200023f565b505050620000fa620000ee6200017160201b60201c565b6200017960201b60201c565b60006008819055506000600981905550610457600a819055506001600b81905550606f600e8190555047600d8190555033601260006101000a81548173ffffffffffffffffffffffffffffffffffffffff021916908373ffffffffffffffffffffffffffffffffffffffff16021790555062000354565b600033905090565b6000600660009054906101000a900473ffffffffffffffffffffffffffffffffffffffff16905081600660006101000a81548173ffffffffffffffffffffffffffffffffffffffff021916908373ffffffffffffffffffffffffffffffffffffffff1602179055508173ffffffffffffffffffffffffffffffffffffffff168173ffffffffffffffffffffffffffffffffffffffff167f8be0079c531659141344cd1fd0a4f28419497f9722a3daafe3b4186f6b6457e060405160405180910390a35050565b8280546200024d90620002ef565b90600052602060002090601f016020900481019282620002715760008555620002bd565b82601f106200028c57805160ff1916838001178555620002bd565b82800160010185558215620002bd579182015b82811115620002bc5782518255916020019190600101906200029f565b5b509050620002cc9190620002d0565b5090565b5b80821115620002eb576000816000905550600101620002d1565b5090565b600060028204905060018216806200030857607f821691505b602082108114156200031f576200031e62000325565b5b50919050565b7f4e487b7100000000000000000000000000000000000000000000000000000000600052602260045260246000fd5b6142bf80620003646000396000f3fe6080604052600436106102675760003560e01c80637a0101a211610144578063b53a68cd116100b6578063d89135cd1161007a578063d89135cd146108e7578063e268e4d314610912578063e985e9c51461093b578063f0293fd314610978578063f2fde38b146109b5578063f4a0a528146109de57610267565b8063b53a68cd14610800578063b69ef8a81461082b578063b88d4fde14610856578063c87b56dd1461087f578063d5abeb01146108bc57610267565b80639373f432116101085780639373f4321461070157806395652cfa1461072a57806395d89b41146107535780639b19251a1461077e578063a0712d68146107bb578063a22cb465146107d757610267565b80637a0101a21461062c5780637f6497831461065757806385d178f4146106805780638da5cb5b146106ab5780638f84aa09146106d657610267565b806323b872dd116101dd578063548db174116101a1578063548db1741461051c5780635c975abb146105455780636352211e146105705780636817c76c146105ad57806370a08231146105d8578063715018a61461061557610267565b806323b872dd1461045f5780633ccfd60b1461048857806342842e0e1461049f57806342966c68146104c8578063453c2310146104f157610267565b8063081812fc1161022f578063081812fc14610351578063095ea7b31461038e57806318160ddd146103b7578063184d69ab146103e2578063194fd7b91461040d5780632373ac221461043657610267565b80630116bc2d1461026c57806301ffc9a71461029757806302329a29146102d4578063061ad73d146102fd57806306fdde0314610326575b600080fd5b34801561027857600080fd5b50610281610a07565b60405161028e91906136e1565b60405180910390f35b3480156102a357600080fd5b506102be60048036038101906102b99190613133565b610a1a565b6040516102cb91906136e1565b60405180910390f35b3480156102e057600080fd5b506102fb60048036038101906102f6919061310a565b610afc565b005b34801561030957600080fd5b50610324600480360381019061031f91906131ca565b610b21565b005b34801561033257600080fd5b5061033b610b33565b60405161034891906136fc565b60405180910390f35b34801561035d57600080fd5b50610378600480360381019061037391906131ca565b610bc5565b604051610385919061365f565b60405180910390f35b34801561039a57600080fd5b506103b560048036038101906103b0919061308d565b610c0b565b005b3480156103c357600080fd5b506103cc610d23565b6040516103d9919061399e565b60405180910390f35b3480156103ee57600080fd5b506103f7610d29565b60405161040491906136e1565b60405180910390f35b34801561041957600080fd5b50610434600480360381019061042f919061310a565b610d3c565b005b34801561044257600080fd5b5061045d6004803603810190610458919061310a565b610d61565b005b34801561046b57600080fd5b5061048660048036038101906104819190612f87565b610d86565b005b34801561049457600080fd5b5061049d610de6565b005b3480156104ab57600080fd5b506104c660048036038101906104c19190612f87565b610ee8565b005b3480156104d457600080fd5b506104ef60048036038101906104ea91906131ca565b610f08565b005b3480156104fd57600080fd5b50610506610f2c565b604051610513919061399e565b60405180910390f35b34801561052857600080fd5b50610543600480360381019061053e91906130c9565b610f32565b005b34801561055157600080fd5b5061055a610ff5565b60405161056791906136e1565b60405180910390f35b34801561057c57600080fd5b50610597600480360381019061059291906131ca565b611008565b6040516105a4919061365f565b60405180910390f35b3480156105b957600080fd5b506105c261108f565b6040516105cf919061399e565b60405180910390f35b3480156105e457600080fd5b506105ff60048036038101906105fa9190612ef9565b611095565b60405161060c919061399e565b60405180910390f35b34801561062157600080fd5b5061062a61114d565b005b34801561063857600080fd5b50610641611161565b60405161064e91906136fc565b60405180910390f35b34801561066357600080fd5b5061067e600480360381019061067991906130c9565b6111ef565b005b34801561068c57600080fd5b506106956112b2565b6040516106a2919061367a565b60405180910390f35b3480156106b757600080fd5b506106c06112d8565b6040516106cd919061365f565b60405180910390f35b3480156106e257600080fd5b506106eb611302565b6040516106f8919061365f565b60405180910390f35b34801561070d57600080fd5b5061072860048036038101906107239190612f22565b611328565b005b34801561073657600080fd5b50610751600480360381019061074c9190613185565b611374565b005b34801561075f57600080fd5b50610768611392565b60405161077591906136fc565b60405180910390f35b34801561078a57600080fd5b506107a560048036038101906107a09190612ef9565b611424565b6040516107b291906136e1565b60405180910390f35b6107d560048036038101906107d091906131ca565b611444565b005b3480156107e357600080fd5b506107fe60048036038101906107f99190613051565b61171e565b005b34801561080c57600080fd5b50610815611734565b604051610822919061399e565b60405180910390f35b34801561083757600080fd5b5061084061173a565b60405161084d919061399e565b60405180910390f35b34801561086257600080fd5b5061087d60048036038101906108789190612fd6565b611740565b005b34801561088b57600080fd5b506108a660048036038101906108a191906131ca565b6117a2565b6040516108b391906136fc565b60405180910390f35b3480156108c857600080fd5b506108d161181e565b6040516108de919061399e565b60405180910390f35b3480156108f357600080fd5b506108fc611824565b604051610909919061399e565b60405180910390f35b34801561091e57600080fd5b50610939600480360381019061093491906131ca565b61182a565b005b34801561094757600080fd5b50610962600480360381019061095d9190612f4b565b61183c565b60405161096f91906136e1565b60405180910390f35b34801561098457600080fd5b5061099f600480360381019061099a9190612ef9565b6118d0565b6040516109ac919061399e565b60405180910390f35b3480156109c157600080fd5b506109dc60048036038101906109d79190612ef9565b6118e8565b005b3480156109ea57600080fd5b50610a056004803603810190610a0091906131ca565b61196c565b005b600f60009054906101000a900460ff1681565b60007f80ac58cd000000000000000000000000000000000000000000000000000000007bffffffffffffffffffffffffffffffffffffffffffffffffffffffff1916827bffffffffffffffffffffffffffffffffffffffffffffffffffffffff19161480610ae557507f5b5e139f000000000000000000000000000000000000000000000000000000007bffffffffffffffffffffffffffffffffffffffffffffffffffffffff1916827bffffffffffffffffffffffffffffffffffffffffffffffffffffffff1916145b80610af55750610af48261197e565b5b9050919050565b610b046119e8565b80600f60016101000a81548160ff02191690831515021790555050565b610b296119e8565b80600e8190555050565b606060008054610b4290613c3f565b80601f0160208091040260200160405190810160405280929190818152602001828054610b6e90613c3f565b8015610bbb5780601f10610b9057610100808354040283529160200191610bbb565b820191906000526020600020905b815481529060010190602001808311610b9e57829003601f168201915b5050505050905090565b6000610bd082611a66565b6004600083815260200190815260200160002060009054906101000a900473ffffffffffffffffffffffffffffffffffffffff169050919050565b6000610c1682611008565b90508073ffffffffffffffffffffffffffffffffffffffff168373ffffffffffffffffffffffffffffffffffffffff161415610c87576040517f08c379a0000000000000000000000000000000000000000000000000000000008152600401610c7e906138fe565b60405180910390fd5b8073ffffffffffffffffffffffffffffffffffffffff16610ca6611ab1565b73ffffffffffffffffffffffffffffffffffffffff161480610cd55750610cd481610ccf611ab1565b61183c565b5b610d14576040517f08c379a0000000000000000000000000000000000000000000000000000000008152600401610d0b9061391e565b60405180910390fd5b610d1e8383611ab9565b505050565b60095481565b600f60029054906101000a900460ff1681565b610d446119e8565b80600f60026101000a81548160ff02191690831515021790555050565b610d696119e8565b80600f60006101000a81548160ff02191690831515021790555050565b610d97610d91611ab1565b82611b72565b610dd6576040517f08c379a0000000000000000000000000000000000000000000000000000000008152600401610dcd9061373e565b60405180910390fd5b610de1838383611c07565b505050565b610dee6119e8565b600047905060008111610e36576040517f08c379a0000000000000000000000000000000000000000000000000000000008152600401610e2d9061383e565b60405180910390fd5b80600d6000828254610e489190613b43565b92505081905550601160009054906101000a900473ffffffffffffffffffffffffffffffffffffffff1673ffffffffffffffffffffffffffffffffffffffff166108fc829081150290604051600060405180830381858888f19350505050610ee5576040517f08c379a0000000000000000000000000000000000000000000000000000000008152600401610edc9061395e565b60405180910390fd5b50565b610f0383838360405180602001604052806000815250611740565b505050565b610f1181611f01565b600c6000815480929190610f2490613ca2565b919050555050565b600b5481565b610f3a6119e8565b60005b8151811015610ff157600060146000848481518110610f85577f4e487b7100000000000000000000000000000000000000000000000000000000600052603260045260246000fd5b602002602001015173ffffffffffffffffffffffffffffffffffffffff1673ffffffffffffffffffffffffffffffffffffffff16815260200190815260200160002060006101000a81548160ff0219169083151502179055508080610fe990613ca2565b915050610f3d565b5050565b600f60019054906101000a900460ff1681565b60008061101483611f5d565b9050600073ffffffffffffffffffffffffffffffffffffffff168173ffffffffffffffffffffffffffffffffffffffff161415611086576040517f08c379a000000000000000000000000000000000000000000000000000000000815260040161107d906138de565b60405180910390fd5b80915050919050565b60085481565b60008073ffffffffffffffffffffffffffffffffffffffff168273ffffffffffffffffffffffffffffffffffffffff161415611106576040517f08c379a00000000000000000000000000000000000000000000000000000000081526004016110fd9061385e565b60405180910390fd5b600360008373ffffffffffffffffffffffffffffffffffffffff1673ffffffffffffffffffffffffffffffffffffffff168152602001908152602001600020549050919050565b6111556119e8565b61115f6000611f9a565b565b6010805461116e90613c3f565b80601f016020809104026020016040519081016040528092919081815260200182805461119a90613c3f565b80156111e75780601f106111bc576101008083540402835291602001916111e7565b820191906000526020600020905b8154815290600101906020018083116111ca57829003601f168201915b505050505081565b6111f76119e8565b60005b81518110156112ae57600160146000848481518110611242577f4e487b7100000000000000000000000000000000000000000000000000000000600052603260045260246000fd5b602002602001015173ffffffffffffffffffffffffffffffffffffffff1673ffffffffffffffffffffffffffffffffffffffff16815260200190815260200160002060006101000a81548160ff02191690831515021790555080806112a690613ca2565b9150506111fa565b5050565b601160009054906101000a900473ffffffffffffffffffffffffffffffffffffffff1681565b6000600660009054906101000a900473ffffffffffffffffffffffffffffffffffffffff16905090565b601260009054906101000a900473ffffffffffffffffffffffffffffffffffffffff1681565b6113306119e8565b80601160006101000a81548173ffffffffffffffffffffffffffffffffffffffff021916908373ffffffffffffffffffffffffffffffffffffffff16021790555050565b61137c6119e8565b81816010919061138d929190612c90565b505050565b6060600180546113a190613c3f565b80601f01602080910402602001604051908101604052809291908181526020018280546113cd90613c3f565b801561141a5780601f106113ef5761010080835404028352916020019161141a565b820191906000526020600020905b8154815290600101906020018083116113fd57829003601f168201915b5050505050905090565b60146020528060005260406000206000915054906101000a900460ff1681565b600f60019054906101000a900460ff161561145e57600080fd5b6008548161146c9190613ae9565b34146114ad576040517f08c379a00000000000000000000000000000000000000000000000000000000081526004016114a49061371e565b60405180910390fd5b600a54816009546114be9190613a93565b11156114ff576040517f08c379a00000000000000000000000000000000000000000000000000000000081526004016114f69061381e565b60405180910390fd5b600b5481601360003373ffffffffffffffffffffffffffffffffffffffff1673ffffffffffffffffffffffffffffffffffffffff1681526020019081526020016000205461154d9190613a93565b111561158e576040517f08c379a00000000000000000000000000000000000000000000000000000000081526004016115859061389e565b60405180910390fd5b600f60029054906101000a900460ff161561163057601460003373ffffffffffffffffffffffffffffffffffffffff1673ffffffffffffffffffffffffffffffffffffffff16815260200190815260200160002060009054906101000a900460ff1661162f576040517f08c379a00000000000000000000000000000000000000000000000000000000081526004016116269061393e565b60405180910390fd5b5b60005b8181101561171a576000600160095461164c9190613a93565b90506009600081548092919061166190613ca2565b91905055506116703382612060565b601360003373ffffffffffffffffffffffffffffffffffffffff1673ffffffffffffffffffffffffffffffffffffffff16815260200190815260200160002060008154809291906116c090613ca2565b919050555034600d60008282546116d79190613a93565b92505081905550600e546009541415611706576000600f60006101000a81548160ff0219169083151502179055505b50808061171290613ca2565b915050611633565b5050565b611730611729611ab1565b838361207e565b5050565b600e5481565b600d5481565b61175161174b611ab1565b83611b72565b611790576040517f08c379a00000000000000000000000000000000000000000000000000000000081526004016117879061373e565b60405180910390fd5b61179c848484846121eb565b50505050565b60606117ad82612247565b6117ec576040517f08c379a00000000000000000000000000000000000000000000000000000000081526004016117e39061397e565b60405180910390fd5b60106117f783612288565b604051602001611808929190613630565b6040516020818303038152906040529050919050565b600a5481565b600c5481565b6118326119e8565b80600b8190555050565b6000600560008473ffffffffffffffffffffffffffffffffffffffff1673ffffffffffffffffffffffffffffffffffffffff16815260200190815260200160002060008373ffffffffffffffffffffffffffffffffffffffff1673ffffffffffffffffffffffffffffffffffffffff16815260200190815260200160002060009054906101000a900460ff16905092915050565b60136020528060005260406000206000915090505481565b6118f06119e8565b600073ffffffffffffffffffffffffffffffffffffffff168173ffffffffffffffffffffffffffffffffffffffff161415611960576040517f08c379a00000000000000000000000000000000000000000000000000000000081526004016119579061377e565b60405180910390fd5b61196981611f9a565b50565b6119746119e8565b8060088190555050565b60007f01ffc9a7000000000000000000000000000000000000000000000000000000007bffffffffffffffffffffffffffffffffffffffffffffffffffffffff1916827bffffffffffffffffffffffffffffffffffffffffffffffffffffffff1916149050919050565b6119f0611ab1565b73ffffffffffffffffffffffffffffffffffffffff16611a0e6112d8565b73ffffffffffffffffffffffffffffffffffffffff1614611a64576040517f08c379a0000000000000000000000000000000000000000000000000000000008152600401611a5b906138be565b60405180910390fd5b565b611a6f81612247565b611aae576040517f08c379a0000000000000000000000000000000000000000000000000000000008152600401611aa5906138de565b60405180910390fd5b50565b600033905090565b816004600083815260200190815260200160002060006101000a81548173ffffffffffffffffffffffffffffffffffffffff021916908373ffffffffffffffffffffffffffffffffffffffff160217905550808273ffffffffffffffffffffffffffffffffffffffff16611b2c83611008565b73ffffffffffffffffffffffffffffffffffffffff167f8c5be1e5ebec7d5bd14f71427d1e84f3dd0314c0f7b2291e5b200ac8c7c3b92560405160405180910390a45050565b600080611b7e83611008565b90508073ffffffffffffffffffffffffffffffffffffffff168473ffffffffffffffffffffffffffffffffffffffff161480611bc05750611bbf818561183c565b5b80611bfe57508373ffffffffffffffffffffffffffffffffffffffff16611be684610bc5565b73ffffffffffffffffffffffffffffffffffffffff16145b91505092915050565b8273ffffffffffffffffffffffffffffffffffffffff16611c2782611008565b73ffffffffffffffffffffffffffffffffffffffff1614611c7d576040517f08c379a0000000000000000000000000000000000000000000000000000000008152600401611c749061379e565b60405180910390fd5b600073ffffffffffffffffffffffffffffffffffffffff168273ffffffffffffffffffffffffffffffffffffffff161415611ced576040517f08c379a0000000000000000000000000000000000000000000000000000000008152600401611ce4906137de565b60405180910390fd5b611cfa83838360016123ac565b8273ffffffffffffffffffffffffffffffffffffffff16611d1a82611008565b73ffffffffffffffffffffffffffffffffffffffff1614611d70576040517f08c379a0000000000000000000000000000000000000000000000000000000008152600401611d679061379e565b60405180910390fd5b6004600082815260200190815260200160002060006101000a81549073ffffffffffffffffffffffffffffffffffffffff02191690556001600360008573ffffffffffffffffffffffffffffffffffffffff1673ffffffffffffffffffffffffffffffffffffffff168152602001908152602001600020600082825403925050819055506001600360008473ffffffffffffffffffffffffffffffffffffffff1673ffffffffffffffffffffffffffffffffffffffff16815260200190815260200160002060008282540192505081905550816002600083815260200190815260200160002060006101000a81548173ffffffffffffffffffffffffffffffffffffffff021916908373ffffffffffffffffffffffffffffffffffffffff160217905550808273ffffffffffffffffffffffffffffffffffffffff168473ffffffffffffffffffffffffffffffffffffffff167fddf252ad1be2c89b69c2b068fc378daa952ba7f163c4a11628f55a4df523b3ef60405160405180910390a4611efc83838360016124d2565b505050565b611f12611f0c611ab1565b82611b72565b611f51576040517f08c379a0000000000000000000000000000000000000000000000000000000008152600401611f489061373e565b60405180910390fd5b611f5a816124d8565b50565b60006002600083815260200190815260200160002060009054906101000a900473ffffffffffffffffffffffffffffffffffffffff169050919050565b6000600660009054906101000a900473ffffffffffffffffffffffffffffffffffffffff16905081600660006101000a81548173ffffffffffffffffffffffffffffffffffffffff021916908373ffffffffffffffffffffffffffffffffffffffff1602179055508173ffffffffffffffffffffffffffffffffffffffff168173ffffffffffffffffffffffffffffffffffffffff167f8be0079c531659141344cd1fd0a4f28419497f9722a3daafe3b4186f6b6457e060405160405180910390a35050565b61207a828260405180602001604052806000815250612626565b5050565b8173ffffffffffffffffffffffffffffffffffffffff168373ffffffffffffffffffffffffffffffffffffffff1614156120ed576040517f08c379a00000000000000000000000000000000000000000000000000000000081526004016120e4906137fe565b60405180910390fd5b80600560008573ffffffffffffffffffffffffffffffffffffffff1673ffffffffffffffffffffffffffffffffffffffff16815260200190815260200160002060008473ffffffffffffffffffffffffffffffffffffffff1673ffffffffffffffffffffffffffffffffffffffff16815260200190815260200160002060006101000a81548160ff0219169083151502179055508173ffffffffffffffffffffffffffffffffffffffff168373ffffffffffffffffffffffffffffffffffffffff167f17307eab39ab6107e8899845ad3d59bd9653f200f220920489ca2b5937696c31836040516121de91906136e1565b60405180910390a3505050565b6121f6848484611c07565b61220284848484612681565b612241576040517f08c379a00000000000000000000000000000000000000000000000000000000081526004016122389061375e565b60405180910390fd5b50505050565b60008073ffffffffffffffffffffffffffffffffffffffff1661226983611f5d565b73ffffffffffffffffffffffffffffffffffffffff1614159050919050565b60606000600161229784612818565b01905060008167ffffffffffffffff8111156122dc577f4e487b7100000000000000000000000000000000000000000000000000000000600052604160045260246000fd5b6040519080825280601f01601f19166020018201604052801561230e5781602001600182028036833780820191505090505b509050600082602001820190505b6001156123a1578080600190039150507f3031323334353637383961626364656600000000000000000000000000000000600a86061a8153600a858161238b577f4e487b7100000000000000000000000000000000000000000000000000000000600052601260045260246000fd5b049450600085141561239c576123a1565b61231c565b819350505050919050565b60018111156124cc57600073ffffffffffffffffffffffffffffffffffffffff168473ffffffffffffffffffffffffffffffffffffffff16146124405780600360008673ffffffffffffffffffffffffffffffffffffffff1673ffffffffffffffffffffffffffffffffffffffff16815260200190815260200160002060008282546124389190613b43565b925050819055505b600073ffffffffffffffffffffffffffffffffffffffff168373ffffffffffffffffffffffffffffffffffffffff16146124cb5780600360008573ffffffffffffffffffffffffffffffffffffffff1673ffffffffffffffffffffffffffffffffffffffff16815260200190815260200160002060008282546124c39190613a93565b925050819055505b5b50505050565b50505050565b60006124e382611008565b90506124f38160008460016123ac565b6124fc82611008565b90506004600083815260200190815260200160002060006101000a81549073ffffffffffffffffffffffffffffffffffffffff02191690556001600360008373ffffffffffffffffffffffffffffffffffffffff1673ffffffffffffffffffffffffffffffffffffffff168152602001908152602001600020600082825403925050819055506002600083815260200190815260200160002060006101000a81549073ffffffffffffffffffffffffffffffffffffffff021916905581600073ffffffffffffffffffffffffffffffffffffffff168273ffffffffffffffffffffffffffffffffffffffff167fddf252ad1be2c89b69c2b068fc378daa952ba7f163c4a11628f55a4df523b3ef60405160405180910390a46126228160008460016124d2565b5050565b6126308383612a4f565b61263d6000848484612681565b61267c576040517f08c379a00000000000000000000000000000000000000000000000000000000081526004016126739061375e565b60405180910390fd5b505050565b60006126a28473ffffffffffffffffffffffffffffffffffffffff16612c6d565b1561280b578373ffffffffffffffffffffffffffffffffffffffff1663150b7a026126cb611ab1565b8786866040518563ffffffff1660e01b81526004016126ed9493929190613695565b602060405180830381600087803b15801561270757600080fd5b505af192505050801561273857506040513d601f19601f82011682018060405250810190612735919061315c565b60015b6127bb573d8060008114612768576040519150601f19603f3d011682016040523d82523d6000602084013e61276d565b606091505b506000815114156127b3576040517f08c379a00000000000000000000000000000000000000000000000000000000081526004016127aa9061375e565b60405180910390fd5b805181602001fd5b63150b7a0260e01b7bffffffffffffffffffffffffffffffffffffffffffffffffffffffff1916817bffffffffffffffffffffffffffffffffffffffffffffffffffffffff191614915050612810565b600190505b949350505050565b600080600090507a184f03e93ff9f4daa797ed6e38ed64bf6a1f010000000000000000831061289c577a184f03e93ff9f4daa797ed6e38ed64bf6a1f0100000000000000008381612892577f4e487b7100000000000000000000000000000000000000000000000000000000600052601260045260246000fd5b0492506040810190505b6d04ee2d6d415b85acef810000000083106128ff576d04ee2d6d415b85acef810000000083816128f5577f4e487b7100000000000000000000000000000000000000000000000000000000600052601260045260246000fd5b0492506020810190505b662386f26fc10000831061295457662386f26fc10000838161294a577f4e487b7100000000000000000000000000000000000000000000000000000000600052601260045260246000fd5b0492506010810190505b6305f5e10083106129a3576305f5e1008381612999577f4e487b7100000000000000000000000000000000000000000000000000000000600052601260045260246000fd5b0492506008810190505b61271083106129ee5761271083816129e4577f4e487b7100000000000000000000000000000000000000000000000000000000600052601260045260246000fd5b0492506004810190505b60648310612a375760648381612a2d577f4e487b7100000000000000000000000000000000000000000000000000000000600052601260045260246000fd5b0492506002810190505b600a8310612a46576001810190505b80915050919050565b600073ffffffffffffffffffffffffffffffffffffffff168273ffffffffffffffffffffffffffffffffffffffff161415612abf576040517f08c379a0000000000000000000000000000000000000000000000000000000008152600401612ab69061387e565b60405180910390fd5b612ac881612247565b15612b08576040517f08c379a0000000000000000000000000000000000000000000000000000000008152600401612aff906137be565b60405180910390fd5b612b166000838360016123ac565b612b1f81612247565b15612b5f576040517f08c379a0000000000000000000000000000000000000000000000000000000008152600401612b56906137be565b60405180910390fd5b6001600360008473ffffffffffffffffffffffffffffffffffffffff1673ffffffffffffffffffffffffffffffffffffffff16815260200190815260200160002060008282540192505081905550816002600083815260200190815260200160002060006101000a81548173ffffffffffffffffffffffffffffffffffffffff021916908373ffffffffffffffffffffffffffffffffffffffff160217905550808273ffffffffffffffffffffffffffffffffffffffff16600073ffffffffffffffffffffffffffffffffffffffff167fddf252ad1be2c89b69c2b068fc378daa952ba7f163c4a11628f55a4df523b3ef60405160405180910390a4612c696000838360016124d2565b5050565b6000808273ffffffffffffffffffffffffffffffffffffffff163b119050919050565b828054612c9c90613c3f565b90600052602060002090601f016020900481019282612cbe5760008555612d05565b82601f10612cd757803560ff1916838001178555612d05565b82800160010185558215612d05579182015b82811115612d04578235825591602001919060010190612ce9565b5b509050612d129190612d16565b5090565b5b80821115612d2f576000816000905550600101612d17565b5090565b6000612d46612d41846139de565b6139b9565b90508083825260208201905082856020860282011115612d6557600080fd5b60005b85811015612d955781612d7b8882612ddd565b845260208401935060208301925050600181019050612d68565b5050509392505050565b6000612db2612dad84613a0a565b6139b9565b905082815260208101848484011115612dca57600080fd5b612dd5848285613bfd565b509392505050565b600081359050612dec81614216565b92915050565b600081359050612e018161422d565b92915050565b600082601f830112612e1857600080fd5b8135612e28848260208601612d33565b91505092915050565b600081359050612e4081614244565b92915050565b600081359050612e558161425b565b92915050565b600081519050612e6a8161425b565b92915050565b600082601f830112612e8157600080fd5b8135612e91848260208601612d9f565b91505092915050565b60008083601f840112612eac57600080fd5b8235905067ffffffffffffffff811115612ec557600080fd5b602083019150836001820283011115612edd57600080fd5b9250929050565b600081359050612ef381614272565b92915050565b600060208284031215612f0b57600080fd5b6000612f1984828501612ddd565b91505092915050565b600060208284031215612f3457600080fd5b6000612f4284828501612df2565b91505092915050565b60008060408385031215612f5e57600080fd5b6000612f6c85828601612ddd565b9250506020612f7d85828601612ddd565b9150509250929050565b600080600060608486031215612f9c57600080fd5b6000612faa86828701612ddd565b9350506020612fbb86828701612ddd565b9250506040612fcc86828701612ee4565b9150509250925092565b60008060008060808587031215612fec57600080fd5b6000612ffa87828801612ddd565b945050602061300b87828801612ddd565b935050604061301c87828801612ee4565b925050606085013567ffffffffffffffff81111561303957600080fd5b61304587828801612e70565b91505092959194509250565b6000806040838503121561306457600080fd5b600061307285828601612ddd565b925050602061308385828601612e31565b9150509250929050565b600080604083850312156130a057600080fd5b60006130ae85828601612ddd565b92505060206130bf85828601612ee4565b9150509250929050565b6000602082840312156130db57600080fd5b600082013567ffffffffffffffff8111156130f557600080fd5b61310184828501612e07565b91505092915050565b60006020828403121561311c57600080fd5b600061312a84828501612e31565b91505092915050565b60006020828403121561314557600080fd5b600061315384828501612e46565b91505092915050565b60006020828403121561316e57600080fd5b600061317c84828501612e5b565b91505092915050565b6000806020838503121561319857600080fd5b600083013567ffffffffffffffff8111156131b257600080fd5b6131be85828601612e9a565b92509250509250929050565b6000602082840312156131dc57600080fd5b60006131ea84828501612ee4565b91505092915050565b6131fc81613b89565b82525050565b61320b81613b77565b82525050565b61321a81613b9b565b82525050565b600061322b82613a50565b6132358185613a66565b9350613245818560208601613c0c565b61324e81613d78565b840191505092915050565b600061326482613a5b565b61326e8185613a77565b935061327e818560208601613c0c565b61328781613d78565b840191505092915050565b600061329d82613a5b565b6132a78185613a88565b93506132b7818560208601613c0c565b80840191505092915050565b600081546132d081613c3f565b6132da8186613a88565b945060018216600081146132f5576001811461330657613339565b60ff19831686528186019350613339565b61330f85613a3b565b60005b8381101561333157815481890152600182019150602081019050613312565b838801955050505b50505092915050565b600061334f601083613a77565b915061335a82613d89565b602082019050919050565b6000613372602d83613a77565b915061337d82613db2565b604082019050919050565b6000613395603283613a77565b91506133a082613e01565b604082019050919050565b60006133b8602683613a77565b91506133c382613e50565b604082019050919050565b60006133db602583613a77565b91506133e682613e9f565b604082019050919050565b60006133fe601c83613a77565b915061340982613eee565b602082019050919050565b6000613421602483613a77565b915061342c82613f17565b604082019050919050565b6000613444601983613a77565b915061344f82613f66565b602082019050919050565b6000613467600883613a77565b915061347282613f8f565b602082019050919050565b600061348a601583613a77565b915061349582613fb8565b602082019050919050565b60006134ad602983613a77565b91506134b882613fe1565b604082019050919050565b60006134d0602083613a77565b91506134db82614030565b602082019050919050565b60006134f3600583613a88565b91506134fe82614059565b600582019050919050565b6000613516601183613a77565b915061352182614082565b602082019050919050565b6000613539602083613a77565b9150613544826140ab565b602082019050919050565b600061355c601883613a77565b9150613567826140d4565b602082019050919050565b600061357f602183613a77565b915061358a826140fd565b604082019050919050565b60006135a2603d83613a77565b91506135ad8261414c565b604082019050919050565b60006135c5600f83613a77565b91506135d08261419b565b602082019050919050565b60006135e8601183613a77565b91506135f3826141c4565b602082019050919050565b600061360b601583613a77565b9150613616826141ed565b602082019050919050565b61362a81613bf3565b82525050565b600061363c82856132c3565b91506136488284613292565b9150613653826134e6565b91508190509392505050565b60006020820190506136746000830184613202565b92915050565b600060208201905061368f60008301846131f3565b92915050565b60006080820190506136aa6000830187613202565b6136b76020830186613202565b6136c46040830185613621565b81810360608301526136d68184613220565b905095945050505050565b60006020820190506136f66000830184613211565b92915050565b600060208201905081810360008301526137168184613259565b905092915050565b6000602082019050818103600083015261373781613342565b9050919050565b6000602082019050818103600083015261375781613365565b9050919050565b6000602082019050818103600083015261377781613388565b9050919050565b60006020820190508181036000830152613797816133ab565b9050919050565b600060208201905081810360008301526137b7816133ce565b9050919050565b600060208201905081810360008301526137d7816133f1565b9050919050565b600060208201905081810360008301526137f781613414565b9050919050565b6000602082019050818103600083015261381781613437565b9050919050565b600060208201905081810360008301526138378161345a565b9050919050565b600060208201905081810360008301526138578161347d565b9050919050565b60006020820190508181036000830152613877816134a0565b9050919050565b60006020820190508181036000830152613897816134c3565b9050919050565b600060208201905081810360008301526138b781613509565b9050919050565b600060208201905081810360008301526138d78161352c565b9050919050565b600060208201905081810360008301526138f78161354f565b9050919050565b6000602082019050818103600083015261391781613572565b9050919050565b6000602082019050818103600083015261393781613595565b9050919050565b60006020820190508181036000830152613957816135b8565b9050919050565b60006020820190508181036000830152613977816135db565b9050919050565b60006020820190508181036000830152613997816135fe565b9050919050565b60006020820190506139b36000830184613621565b92915050565b60006139c36139d4565b90506139cf8282613c71565b919050565b6000604051905090565b600067ffffffffffffffff8211156139f9576139f8613d49565b5b602082029050602081019050919050565b600067ffffffffffffffff821115613a2557613a24613d49565b5b613a2e82613d78565b9050602081019050919050565b60008190508160005260206000209050919050565b600081519050919050565b600081519050919050565b600082825260208201905092915050565b600082825260208201905092915050565b600081905092915050565b6000613a9e82613bf3565b9150613aa983613bf3565b9250827fffffffffffffffffffffffffffffffffffffffffffffffffffffffffffffffff03821115613ade57613add613ceb565b5b828201905092915050565b6000613af482613bf3565b9150613aff83613bf3565b9250817fffffffffffffffffffffffffffffffffffffffffffffffffffffffffffffffff0483118215151615613b3857613b37613ceb565b5b828202905092915050565b6000613b4e82613bf3565b9150613b5983613bf3565b925082821015613b6c57613b6b613ceb565b5b828203905092915050565b6000613b8282613bd3565b9050919050565b6000613b9482613bd3565b9050919050565b60008115159050919050565b60007fffffffff0000000000000000000000000000000000000000000000000000000082169050919050565b600073ffffffffffffffffffffffffffffffffffffffff82169050919050565b6000819050919050565b82818337600083830152505050565b60005b83811015613c2a578082015181840152602081019050613c0f565b83811115613c39576000848401525b50505050565b60006002820490506001821680613c5757607f821691505b60208210811415613c6b57613c6a613d1a565b5b50919050565b613c7a82613d78565b810181811067ffffffffffffffff82111715613c9957613c98613d49565b5b80604052505050565b6000613cad82613bf3565b91507fffffffffffffffffffffffffffffffffffffffffffffffffffffffffffffffff821415613ce057613cdf613ceb565b5b600182019050919050565b7f4e487b7100000000000000000000000000000000000000000000000000000000600052601160045260246000fd5b7f4e487b7100000000000000000000000000000000000000000000000000000000600052602260045260246000fd5b7f4e487b7100000000000000000000000000000000000000000000000000000000600052604160045260246000fd5b6000601f19601f8301169050919050565b7f77726f6e67206d696e742076616c756500000000000000000000000000000000600082015250565b7f4552433732313a2063616c6c6572206973206e6f7420746f6b656e206f776e6560008201527f72206f7220617070726f76656400000000000000000000000000000000000000602082015250565b7f4552433732313a207472616e7366657220746f206e6f6e20455243373231526560008201527f63656976657220696d706c656d656e7465720000000000000000000000000000602082015250565b7f4f776e61626c653a206e6577206f776e657220697320746865207a65726f206160008201527f6464726573730000000000000000000000000000000000000000000000000000602082015250565b7f4552433732313a207472616e736665722066726f6d20696e636f72726563742060008201527f6f776e6572000000000000000000000000000000000000000000000000000000602082015250565b7f4552433732313a20746f6b656e20616c7265616479206d696e74656400000000600082015250565b7f4552433732313a207472616e7366657220746f20746865207a65726f2061646460008201527f7265737300000000000000000000000000000000000000000000000000000000602082015250565b7f4552433732313a20617070726f766520746f2063616c6c657200000000000000600082015250565b7f736f6c64206f7574000000000000000000000000000000000000000000000000600082015250565b7f436f6e74726163742062616c616e636520697320300000000000000000000000600082015250565b7f4552433732313a2061646472657373207a65726f206973206e6f74206120766160008201527f6c6964206f776e65720000000000000000000000000000000000000000000000602082015250565b7f4552433732313a206d696e7420746f20746865207a65726f2061646472657373600082015250565b7f2e6a736f6e000000000000000000000000000000000000000000000000000000600082015250565b7f657863656564206d61782077616c6c6574000000000000000000000000000000600082015250565b7f4f776e61626c653a2063616c6c6572206973206e6f7420746865206f776e6572600082015250565b7f4552433732313a20696e76616c696420746f6b656e2049440000000000000000600082015250565b7f4552433732313a20617070726f76616c20746f2063757272656e74206f776e6560008201527f7200000000000000000000000000000000000000000000000000000000000000602082015250565b7f4552433732313a20617070726f76652063616c6c6572206973206e6f7420746f60008201527f6b656e206f776e6572206f7220617070726f76656420666f7220616c6c000000602082015250565b7f6e6f742077686974656c69737465640000000000000000000000000000000000600082015250565b7f5769746864726177616c206661696c6564000000000000000000000000000000600082015250565b7f546f6b656e20646f6573206e6f74206578697374210000000000000000000000600082015250565b61421f81613b77565b811461422a57600080fd5b50565b61423681613b89565b811461424157600080fd5b50565b61424d81613b9b565b811461425857600080fd5b50565b61426481613ba7565b811461426f57600080fd5b50565b61427b81613bf3565b811461428657600080fd5b5056fea26469706673582212207f449a44d3b04a8669816394dcab7ab9320a8e0aa974bdcb07bd03cc23389aaa64736f6c63430008010033",
  "linkReferences": {},
  "deployedLinkReferences": {}
}