{
  "_format": "hh-sol-artifact-1",
  "contractName": "RoboPunksNFT",
  "sourceName": "contracts/RobopunksNFT.sol",
  "abi": [
    {
      "inputs": [],
      "stateMutability": "payable",
      "type": "constructor"
    },
    {
      "anonymous": false,
      "inputs": [
        {
          "indexed": true,
          "internalType": "address",
          "name": "owner",
          "type": "address"
        },
        {
          "indexed": true,
          "internalType": "address",
          "name": "approved",
          "type": "address"
        },
        {
          "indexed": true,
          "internalType": "uint256",
          "name": "tokenId",
          "type": "uint256"
        }
      ],
      "name": "Approval",
      "type": "event"
    },
    {
      "anonymous": false,
      "inputs": [
        {
          "indexed": true,
          "internalType": "address",
          "name": "owner",
          "type": "address"
        },
        {
          "indexed": true,
          "internalType": "address",
          "name": "operator",
          "type": "address"
        },
        {
          "indexed": false,
          "internalType": "bool",
          "name": "approved",
          "type": "bool"
        }
      ],
      "name": "ApprovalForAll",
      "type": "event"
    },
    {
      "anonymous": false,
      "inputs": [
        {
          "indexed": true,
          "internalType": "uint256",
          "name": "tokenId",
          "type": "uint256"
        },
        {
          "indexed": false,
          "internalType": "address",
          "name": "burner",
          "type": "address"
        }
      ],
      "name": "Burn",
      "type": "event"
    },
    {
      "anonymous": false,
      "inputs": [
        {
          "indexed": true,
          "internalType": "address",
          "name": "previousOwner",
          "type": "address"
        },
        {
          "indexed": true,
          "internalType": "address",
          "name": "newOwner",
          "type": "address"
        }
      ],
      "name": "OwnershipTransferred",
      "type": "event"
    },
    {
      "anonymous": false,
      "inputs": [
        {
          "indexed": true,
          "internalType": "address",
          "name": "from",
          "type": "address"
        },
        {
          "indexed": true,
          "internalType": "address",
          "name": "to",
          "type": "address"
        },
        {
          "indexed": true,
          "internalType": "uint256",
          "name": "tokenId",
          "type": "uint256"
        }
      ],
      "name": "Transfer",
      "type": "event"
    },
    {
      "inputs": [
        {
          "internalType": "address",
          "name": "to",
          "type": "address"
        },
        {
          "internalType": "uint256",
          "name": "tokenId",
          "type": "uint256"
        }
      ],
      "name": "approve",
      "outputs": [],
      "stateMutability": "nonpayable",
      "type": "function"
    },
    {
      "inputs": [
        {
          "internalType": "address",
          "name": "owner",
          "type": "address"
        }
      ],
      "name": "balanceOf",
      "outputs": [
        {
          "internalType": "uint256",
          "name": "",
          "type": "uint256"
        }
      ],
      "stateMutability": "view",
      "type": "function"
    },
    {
      "inputs": [
        {
          "internalType": "uint256",
          "name": "tokenId",
          "type": "uint256"
        }
      ],
      "name": "burn",
      "outputs": [],
      "stateMutability": "nonpayable",
      "type": "function"
    },
    {
      "inputs": [
        {
          "internalType": "uint256",
          "name": "_tokenId",
          "type": "uint256"
        }
      ],
      "name": "burnNFT",
      "outputs": [],
      "stateMutability": "nonpayable",
      "type": "function"
    },
    {
      "inputs": [
        {
          "internalType": "uint256",
          "name": "tokenId",
          "type": "uint256"
        }
      ],
      "name": "getApproved",
      "outputs": [
        {
          "internalType": "address",
          "name": "",
          "type": "address"
        }
      ],
      "stateMutability": "view",
      "type": "function"
    },
    {
      "inputs": [
        {
          "internalType": "address",
          "name": "owner",
          "type": "address"
        },
        {
          "internalType": "address",
          "name": "operator",
          "type": "address"
        }
      ],
      "name": "isApprovedForAll",
      "outputs": [
        {
          "internalType": "bool",
          "name": "",
          "type": "bool"
        }
      ],
      "stateMutability": "view",
      "type": "function"
    },
    {
      "inputs": [],
      "name": "isPublicMintEnabled",
      "outputs": [
        {
          "internalType": "bool",
          "name": "",
          "type": "bool"
        }
      ],
      "stateMutability": "view",
      "type": "function"
    },
    {
      "inputs": [],
      "name": "maxPerWallet",
      "outputs": [
        {
          "internalType": "uint256",
          "name": "",
          "type": "uint256"
        }
      ],
      "stateMutability": "view",
      "type": "function"
    },
    {
      "inputs": [],
      "name": "maxSupply",
      "outputs": [
        {
          "internalType": "uint256",
          "name": "",
          "type": "uint256"
        }
      ],
      "stateMutability": "view",
      "type": "function"
    },
    {
      "inputs": [
        {
          "internalType": "uint256",
          "name": "quantity_",
          "type": "uint256"
        }
      ],
      "name": "mint",
      "outputs": [],
      "stateMutability": "payable",
      "type": "function"
    },
    {
      "inputs": [],
      "name": "mintPrice",
      "outputs": [
        {
          "internalType": "uint256",
          "name": "",
          "type": "uint256"
        }
      ],
      "stateMutability": "view",
      "type": "function"
    },
    {
      "inputs": [],
      "name": "name",
      "outputs": [
        {
          "internalType": "string",
          "name": "",
          "type": "string"
        }
      ],
      "stateMutability": "view",
      "type": "function"
    },
    {
      "inputs": [],
      "name": "owner",
      "outputs": [
        {
          "internalType": "address",
          "name": "",
          "type": "address"
        }
      ],
      "stateMutability": "view",
      "type": "function"
    },
    {
      "inputs": [
        {
          "internalType": "uint256",
          "name": "tokenId",
          "type": "uint256"
        }
      ],
      "name": "ownerOf",
      "outputs": [
        {
          "internalType": "address",
          "name": "",
          "type": "address"
        }
      ],
      "stateMutability": "view",
      "type": "function"
    },
    {
      "inputs": [],
      "name": "renounceOwnership",
      "outputs": [],
      "stateMutability": "nonpayable",
      "type": "function"
    },
    {
      "inputs": [
        {
          "internalType": "address",
          "name": "from",
          "type": "address"
        },
        {
          "internalType": "address",
          "name": "to",
          "type": "address"
        },
        {
          "internalType": "uint256",
          "name": "tokenId",
          "type": "uint256"
        }
      ],
      "name": "safeTransferFrom",
      "outputs": [],
      "stateMutability": "nonpayable",
      "type": "function"
    },
    {
      "inputs": [
        {
          "internalType": "address",
          "name": "from",
          "type": "address"
        },
        {
          "internalType": "address",
          "name": "to",
          "type": "address"
        },
        {
          "internalType": "uint256",
          "name": "tokenId",
          "type": "uint256"
        },
        {
          "internalType": "bytes",
          "name": "data",
          "type": "bytes"
        }
      ],
      "name": "safeTransferFrom",
      "outputs": [],
      "stateMutability": "nonpayable",
      "type": "function"
    },
    {
      "inputs": [
        {
          "internalType": "address",
          "name": "operator",
          "type": "address"
        },
        {
          "internalType": "bool",
          "name": "approved",
          "type": "bool"
        }
      ],
      "name": "setApprovalForAll",
      "outputs": [],
      "stateMutability": "nonpayable",
      "type": "function"
    },
    {
      "inputs": [
        {
          "internalType": "string",
          "name": "baseTokenUri_",
          "type": "string"
        }
      ],
      "name": "setBaseTokenUri",
      "outputs": [],
      "stateMutability": "nonpayable",
      "type": "function"
    },
    {
      "inputs": [
        {
          "internalType": "bool",
          "name": "isPublicMintEnabled_",
          "type": "bool"
        }
      ],
      "name": "setIsPublicMintEnabled",
      "outputs": [],
      "stateMutability": "nonpayable",
      "type": "function"
    },
    {
      "inputs": [
        {
          "internalType": "bytes4",
          "name": "interfaceId",
          "type": "bytes4"
        }
      ],
      "name": "supportsInterface",
      "outputs": [
        {
          "internalType": "bool",
          "name": "",
          "type": "bool"
        }
      ],
      "stateMutability": "view",
      "type": "function"
    },
    {
      "inputs": [],
      "name": "symbol",
      "outputs": [
        {
          "internalType": "string",
          "name": "",
          "type": "string"
        }
      ],
      "stateMutability": "view",
      "type": "function"
    },
    {
      "inputs": [
        {
          "internalType": "uint256",
          "name": "",
          "type": "uint256"
        }
      ],
      "name": "tokenOwner",
      "outputs": [
        {
          "internalType": "address",
          "name": "",
          "type": "address"
        }
      ],
      "stateMutability": "view",
      "type": "function"
    },
    {
      "inputs": [
        {
          "internalType": "uint256",
          "name": "tokenId_",
          "type": "uint256"
        }
      ],
      "name": "tokenURI",
      "outputs": [
        {
          "internalType": "string",
          "name": "",
          "type": "string"
        }
      ],
      "stateMutability": "view",
      "type": "function"
    },
    {
      "inputs": [],
      "name": "totalBurned",
      "outputs": [
        {
          "internalType": "uint256",
          "name": "",
          "type": "uint256"
        }
      ],
      "stateMutability": "view",
      "type": "function"
    },
    {
      "inputs": [],
      "name": "totalSupply",
      "outputs": [
        {
          "internalType": "uint256",
          "name": "",
          "type": "uint256"
        }
      ],
      "stateMutability": "view",
      "type": "function"
    },
    {
      "inputs": [
        {
          "internalType": "address",
          "name": "from",
          "type": "address"
        },
        {
          "internalType": "address",
          "name": "to",
          "type": "address"
        },
        {
          "internalType": "uint256",
          "name": "tokenId",
          "type": "uint256"
        }
      ],
      "name": "transferFrom",
      "outputs": [],
      "stateMutability": "nonpayable",
      "type": "function"
    },
    {
      "inputs": [
        {
          "internalType": "address",
          "name": "newOwner",
          "type": "address"
        }
      ],
      "name": "transferOwnership",
      "outputs": [],
      "stateMutability": "nonpayable",
      "type": "function"
    },
    {
      "inputs": [
        {
          "internalType": "address",
          "name": "",
          "type": "address"
        }
      ],
      "name": "walletMints",
      "outputs": [
        {
          "internalType": "uint256",
          "name": "",
          "type": "uint256"
        }
      ],
      "stateMutability": "view",
      "type": "function"
    },
    {
      "inputs": [],
      "name": "withdraw",
      "outputs": [],
      "stateMutability": "nonpayable",
      "type": "function"
    },
    {
      "inputs": [],
      "name": "withdrawWallet",
      "outputs": [
        {
          "internalType": "address payable",
          "name": "",
          "type": "address"
        }
      ],
      "stateMutability": "view",
      "type": "function"
    }
  ],
  "bytecode": "0x60806040526040518060400160405280600c81526020017f526f626f50756e6b734e465400000000000000000000000000000000000000008152506040518060400160405280600281526020017f5250000000000000000000000000000000000000000000000000000000000000815250816000908051906020019062000088929190620001bf565b508060019080519060200190620000a1929190620001bf565b505050620000c4620000b8620000f160201b60201c565b620000f960201b60201c565b66470de4df82000060078190555060006008819055506103e86009819055506003600a81905550620002d4565b600033905090565b6000600660009054906101000a900473ffffffffffffffffffffffffffffffffffffffff16905081600660006101000a81548173ffffffffffffffffffffffffffffffffffffffff021916908373ffffffffffffffffffffffffffffffffffffffff1602179055508173ffffffffffffffffffffffffffffffffffffffff168173ffffffffffffffffffffffffffffffffffffffff167f8be0079c531659141344cd1fd0a4f28419497f9722a3daafe3b4186f6b6457e060405160405180910390a35050565b828054620001cd906200026f565b90600052602060002090601f016020900481019282620001f157600085556200023d565b82601f106200020c57805160ff19168380011785556200023d565b828001600101855582156200023d579182015b828111156200023c5782518255916020019190600101906200021f565b5b5090506200024c919062000250565b5090565b5b808211156200026b57600081600090555060010162000251565b5090565b600060028204905060018216806200028857607f821691505b602082108114156200029f576200029e620002a5565b5b50919050565b7f4e487b7100000000000000000000000000000000000000000000000000000000600052602260045260246000fd5b613c8f80620002e46000396000f3fe6080604052600436106101d85760003560e01c80636817c76c11610102578063a22cb46511610095578063d89135cd11610064578063d89135cd14610689578063e985e9c5146106b4578063f0293fd3146106f1578063f2fde38b1461072e576101d8565b8063a22cb465146105cf578063b88d4fde146105f8578063c87b56dd14610621578063d5abeb011461065e576101d8565b80638da5cb5b116100d15780638da5cb5b1461053457806395652cfa1461055f57806395d89b4114610588578063a0712d68146105b3576101d8565b80636817c76c1461048a57806370a08231146104b5578063715018a6146104f257806385d178f414610509576101d8565b80632373ac221161017a57806342842e0e1161014957806342842e0e146103d057806342966c68146103f9578063453c2310146104225780636352211e1461044d576101d8565b80632373ac221461033e57806323b872dd146103675780632890e0d7146103905780633ccfd60b146103b9576101d8565b8063081812fc116101b6578063081812fc14610270578063095ea7b3146102ad57806318160ddd146102d65780631caaa48714610301576101d8565b80630116bc2d146101dd57806301ffc9a71461020857806306fdde0314610245575b600080fd5b3480156101e957600080fd5b506101f2610757565b6040516101ff919061309d565b60405180910390f35b34801561021457600080fd5b5061022f600480360381019061022a9190612a94565b61076a565b60405161023c919061309d565b60405180910390f35b34801561025157600080fd5b5061025a61084c565b60405161026791906130b8565b60405180910390f35b34801561027c57600080fd5b5061029760048036038101906102929190612b2b565b6108de565b6040516102a4919061301b565b60405180910390f35b3480156102b957600080fd5b506102d460048036038101906102cf9190612a2f565b610924565b005b3480156102e257600080fd5b506102eb610a3c565b6040516102f8919061337a565b60405180910390f35b34801561030d57600080fd5b5061032860048036038101906103239190612b2b565b610a42565b604051610335919061301b565b60405180910390f35b34801561034a57600080fd5b5061036560048036038101906103609190612a6b565b610a75565b005b34801561037357600080fd5b5061038e60048036038101906103899190612929565b610a9a565b005b34801561039c57600080fd5b506103b760048036038101906103b29190612b2b565b610afa565b005b3480156103c557600080fd5b506103ce610c43565b005b3480156103dc57600080fd5b506103f760048036038101906103f29190612929565b610d1c565b005b34801561040557600080fd5b50610420600480360381019061041b9190612b2b565b610d3c565b005b34801561042e57600080fd5b50610437610d98565b604051610444919061337a565b60405180910390f35b34801561045957600080fd5b50610474600480360381019061046f9190612b2b565b610d9e565b604051610481919061301b565b60405180910390f35b34801561049657600080fd5b5061049f610e25565b6040516104ac919061337a565b60405180910390f35b3480156104c157600080fd5b506104dc60048036038101906104d791906128c4565b610e2b565b6040516104e9919061337a565b60405180910390f35b3480156104fe57600080fd5b50610507610ee3565b005b34801561051557600080fd5b5061051e610ef7565b60405161052b9190613036565b60405180910390f35b34801561054057600080fd5b50610549610f1d565b604051610556919061301b565b60405180910390f35b34801561056b57600080fd5b5061058660048036038101906105819190612ae6565b610f47565b005b34801561059457600080fd5b5061059d610f65565b6040516105aa91906130b8565b60405180910390f35b6105cd60048036038101906105c89190612b2b565b610ff7565b005b3480156105db57600080fd5b506105f660048036038101906105f191906129f3565b611220565b005b34801561060457600080fd5b5061061f600480360381019061061a9190612978565b611236565b005b34801561062d57600080fd5b5061064860048036038101906106439190612b2b565b611298565b60405161065591906130b8565b60405180910390f35b34801561066a57600080fd5b50610673611314565b604051610680919061337a565b60405180910390f35b34801561069557600080fd5b5061069e61131a565b6040516106ab919061337a565b60405180910390f35b3480156106c057600080fd5b506106db60048036038101906106d691906128ed565b611320565b6040516106e8919061309d565b60405180910390f35b3480156106fd57600080fd5b50610718600480360381019061071391906128c4565b6113b4565b604051610725919061337a565b60405180910390f35b34801561073a57600080fd5b50610755600480360381019061075091906128c4565b6113cc565b005b600c60009054906101000a900460ff1681565b60007f80ac58cd000000000000000000000000000000000000000000000000000000007bffffffffffffffffffffffffffffffffffffffffffffffffffffffff1916827bffffffffffffffffffffffffffffffffffffffffffffffffffffffff1916148061083557507f5b5e139f000000000000000000000000000000000000000000000000000000007bffffffffffffffffffffffffffffffffffffffffffffffffffffffff1916827bffffffffffffffffffffffffffffffffffffffffffffffffffffffff1916145b80610845575061084482611450565b5b9050919050565b60606000805461085b906135fa565b80601f0160208091040260200160405190810160405280929190818152602001828054610887906135fa565b80156108d45780601f106108a9576101008083540402835291602001916108d4565b820191906000526020600020905b8154815290600101906020018083116108b757829003601f168201915b5050505050905090565b60006108e9826114ba565b6004600083815260200190815260200160002060009054906101000a900473ffffffffffffffffffffffffffffffffffffffff169050919050565b600061092f82610d9e565b90508073ffffffffffffffffffffffffffffffffffffffff168373ffffffffffffffffffffffffffffffffffffffff1614156109a0576040517f08c379a0000000000000000000000000000000000000000000000000000000008152600401610997906132fa565b60405180910390fd5b8073ffffffffffffffffffffffffffffffffffffffff166109bf611505565b73ffffffffffffffffffffffffffffffffffffffff1614806109ee57506109ed816109e8611505565b611320565b5b610a2d576040517f08c379a0000000000000000000000000000000000000000000000000000000008152600401610a249061331a565b60405180910390fd5b610a37838361150d565b505050565b60085481565b60106020528060005260406000206000915054906101000a900473ffffffffffffffffffffffffffffffffffffffff1681565b610a7d6115c6565b80600c60006101000a81548160ff02191690831515021790555050565b610aab610aa5611505565b82611644565b610aea576040517f08c379a0000000000000000000000000000000000000000000000000000000008152600401610ae1906130fa565b60405180910390fd5b610af58383836116d9565b505050565b3373ffffffffffffffffffffffffffffffffffffffff16610b1a82610d9e565b73ffffffffffffffffffffffffffffffffffffffff1614610b70576040517f08c379a0000000000000000000000000000000000000000000000000000000008152600401610b67906132ba565b60405180910390fd5b60008111610bb3576040517f08c379a0000000000000000000000000000000000000000000000000000000008152600401610baa906131fa565b60405180910390fd5b807ff6554c3a5d28e08c120b5a69c7edbaf52f935bd2596a60b8a18e282cd257cddb33604051610be3919061301b565b60405180910390a26000806010600084815260200190815260200160002060006101000a81548173ffffffffffffffffffffffffffffffffffffffff021916908373ffffffffffffffffffffffffffffffffffffffff1602179055505050565b610c4b6115c6565b6000600e60009054906101000a900473ffffffffffffffffffffffffffffffffffffffff1673ffffffffffffffffffffffffffffffffffffffff1647604051610c9390613006565b60006040518083038185875af1925050503d8060008114610cd0576040519150601f19603f3d011682016040523d82523d6000602084013e610cd5565b606091505b5050905080610d19576040517f08c379a0000000000000000000000000000000000000000000000000000000008152600401610d109061335a565b60405180910390fd5b50565b610d3783838360405180602001604052806000815250611236565b505050565b610d4d610d47611505565b82611644565b610d8c576040517f08c379a0000000000000000000000000000000000000000000000000000000008152600401610d83906130fa565b60405180910390fd5b610d95816119d3565b50565b600a5481565b600080610daa83611b21565b9050600073ffffffffffffffffffffffffffffffffffffffff168173ffffffffffffffffffffffffffffffffffffffff161415610e1c576040517f08c379a0000000000000000000000000000000000000000000000000000000008152600401610e13906132da565b60405180910390fd5b80915050919050565b60075481565b60008073ffffffffffffffffffffffffffffffffffffffff168273ffffffffffffffffffffffffffffffffffffffff161415610e9c576040517f08c379a0000000000000000000000000000000000000000000000000000000008152600401610e939061323a565b60405180910390fd5b600360008373ffffffffffffffffffffffffffffffffffffffff1673ffffffffffffffffffffffffffffffffffffffff168152602001908152602001600020549050919050565b610eeb6115c6565b610ef56000611b5e565b565b600e60009054906101000a900473ffffffffffffffffffffffffffffffffffffffff1681565b6000600660009054906101000a900473ffffffffffffffffffffffffffffffffffffffff16905090565b610f4f6115c6565b8181600d9190610f60929190612706565b505050565b606060018054610f74906135fa565b80601f0160208091040260200160405190810160405280929190818152602001828054610fa0906135fa565b8015610fed5780601f10610fc257610100808354040283529160200191610fed565b820191906000526020600020905b815481529060010190602001808311610fd057829003601f168201915b5050505050905090565b600c60009054906101000a900460ff16611046576040517f08c379a000000000000000000000000000000000000000000000000000000000815260040161103d9061313a565b60405180910390fd5b6007548161105491906134a4565b3414611095576040517f08c379a000000000000000000000000000000000000000000000000000000000815260040161108c906130da565b60405180910390fd5b600954816008546110a6919061344e565b11156110e7576040517f08c379a00000000000000000000000000000000000000000000000000000000081526004016110de9061321a565b60405180910390fd5b600a5481600f60003373ffffffffffffffffffffffffffffffffffffffff1673ffffffffffffffffffffffffffffffffffffffff16815260200190815260200160002054611135919061344e565b1115611176576040517f08c379a000000000000000000000000000000000000000000000000000000000815260040161116d9061327a565b60405180910390fd5b60005b8181101561121c5760006001600854611192919061344e565b9050600860008154809291906111a79061365d565b9190505550336010600083815260200190815260200160002060006101000a81548173ffffffffffffffffffffffffffffffffffffffff021916908373ffffffffffffffffffffffffffffffffffffffff1602179055506112083382611c24565b5080806112149061365d565b915050611179565b5050565b61123261122b611505565b8383611c42565b5050565b611247611241611505565b83611644565b611286576040517f08c379a000000000000000000000000000000000000000000000000000000000815260040161127d906130fa565b60405180910390fd5b61129284848484611daf565b50505050565b60606112a382611e0b565b6112e2576040517f08c379a00000000000000000000000000000000000000000000000000000000081526004016112d99061333a565b60405180910390fd5b600d6112ed83611e4c565b6040516020016112fe929190612fd7565b6040516020818303038152906040529050919050565b60095481565b600b5481565b6000600560008473ffffffffffffffffffffffffffffffffffffffff1673ffffffffffffffffffffffffffffffffffffffff16815260200190815260200160002060008373ffffffffffffffffffffffffffffffffffffffff1673ffffffffffffffffffffffffffffffffffffffff16815260200190815260200160002060009054906101000a900460ff16905092915050565b600f6020528060005260406000206000915090505481565b6113d46115c6565b600073ffffffffffffffffffffffffffffffffffffffff168173ffffffffffffffffffffffffffffffffffffffff161415611444576040517f08c379a000000000000000000000000000000000000000000000000000000000815260040161143b9061315a565b60405180910390fd5b61144d81611b5e565b50565b60007f01ffc9a7000000000000000000000000000000000000000000000000000000007bffffffffffffffffffffffffffffffffffffffffffffffffffffffff1916827bffffffffffffffffffffffffffffffffffffffffffffffffffffffff1916149050919050565b6114c381611e0b565b611502576040517f08c379a00000000000000000000000000000000000000000000000000000000081526004016114f9906132da565b60405180910390fd5b50565b600033905090565b816004600083815260200190815260200160002060006101000a81548173ffffffffffffffffffffffffffffffffffffffff021916908373ffffffffffffffffffffffffffffffffffffffff160217905550808273ffffffffffffffffffffffffffffffffffffffff1661158083610d9e565b73ffffffffffffffffffffffffffffffffffffffff167f8c5be1e5ebec7d5bd14f71427d1e84f3dd0314c0f7b2291e5b200ac8c7c3b92560405160405180910390a45050565b6115ce611505565b73ffffffffffffffffffffffffffffffffffffffff166115ec610f1d565b73ffffffffffffffffffffffffffffffffffffffff1614611642576040517f08c379a00000000000000000000000000000000000000000000000000000000081526004016116399061329a565b60405180910390fd5b565b60008061165083610d9e565b90508073ffffffffffffffffffffffffffffffffffffffff168473ffffffffffffffffffffffffffffffffffffffff16148061169257506116918185611320565b5b806116d057508373ffffffffffffffffffffffffffffffffffffffff166116b8846108de565b73ffffffffffffffffffffffffffffffffffffffff16145b91505092915050565b8273ffffffffffffffffffffffffffffffffffffffff166116f982610d9e565b73ffffffffffffffffffffffffffffffffffffffff161461174f576040517f08c379a00000000000000000000000000000000000000000000000000000000081526004016117469061317a565b60405180910390fd5b600073ffffffffffffffffffffffffffffffffffffffff168273ffffffffffffffffffffffffffffffffffffffff1614156117bf576040517f08c379a00000000000000000000000000000000000000000000000000000000081526004016117b6906131ba565b60405180910390fd5b6117cc8383836001611f70565b8273ffffffffffffffffffffffffffffffffffffffff166117ec82610d9e565b73ffffffffffffffffffffffffffffffffffffffff1614611842576040517f08c379a00000000000000000000000000000000000000000000000000000000081526004016118399061317a565b60405180910390fd5b6004600082815260200190815260200160002060006101000a81549073ffffffffffffffffffffffffffffffffffffffff02191690556001600360008573ffffffffffffffffffffffffffffffffffffffff1673ffffffffffffffffffffffffffffffffffffffff168152602001908152602001600020600082825403925050819055506001600360008473ffffffffffffffffffffffffffffffffffffffff1673ffffffffffffffffffffffffffffffffffffffff16815260200190815260200160002060008282540192505081905550816002600083815260200190815260200160002060006101000a81548173ffffffffffffffffffffffffffffffffffffffff021916908373ffffffffffffffffffffffffffffffffffffffff160217905550808273ffffffffffffffffffffffffffffffffffffffff168473ffffffffffffffffffffffffffffffffffffffff167fddf252ad1be2c89b69c2b068fc378daa952ba7f163c4a11628f55a4df523b3ef60405160405180910390a46119ce8383836001612096565b505050565b60006119de82610d9e565b90506119ee816000846001611f70565b6119f782610d9e565b90506004600083815260200190815260200160002060006101000a81549073ffffffffffffffffffffffffffffffffffffffff02191690556001600360008373ffffffffffffffffffffffffffffffffffffffff1673ffffffffffffffffffffffffffffffffffffffff168152602001908152602001600020600082825403925050819055506002600083815260200190815260200160002060006101000a81549073ffffffffffffffffffffffffffffffffffffffff021916905581600073ffffffffffffffffffffffffffffffffffffffff168273ffffffffffffffffffffffffffffffffffffffff167fddf252ad1be2c89b69c2b068fc378daa952ba7f163c4a11628f55a4df523b3ef60405160405180910390a4611b1d816000846001612096565b5050565b60006002600083815260200190815260200160002060009054906101000a900473ffffffffffffffffffffffffffffffffffffffff169050919050565b6000600660009054906101000a900473ffffffffffffffffffffffffffffffffffffffff16905081600660006101000a81548173ffffffffffffffffffffffffffffffffffffffff021916908373ffffffffffffffffffffffffffffffffffffffff1602179055508173ffffffffffffffffffffffffffffffffffffffff168173ffffffffffffffffffffffffffffffffffffffff167f8be0079c531659141344cd1fd0a4f28419497f9722a3daafe3b4186f6b6457e060405160405180910390a35050565b611c3e82826040518060200160405280600081525061209c565b5050565b8173ffffffffffffffffffffffffffffffffffffffff168373ffffffffffffffffffffffffffffffffffffffff161415611cb1576040517f08c379a0000000000000000000000000000000000000000000000000000000008152600401611ca8906131da565b60405180910390fd5b80600560008573ffffffffffffffffffffffffffffffffffffffff1673ffffffffffffffffffffffffffffffffffffffff16815260200190815260200160002060008473ffffffffffffffffffffffffffffffffffffffff1673ffffffffffffffffffffffffffffffffffffffff16815260200190815260200160002060006101000a81548160ff0219169083151502179055508173ffffffffffffffffffffffffffffffffffffffff168373ffffffffffffffffffffffffffffffffffffffff167f17307eab39ab6107e8899845ad3d59bd9653f200f220920489ca2b5937696c3183604051611da2919061309d565b60405180910390a3505050565b611dba8484846116d9565b611dc6848484846120f7565b611e05576040517f08c379a0000000000000000000000000000000000000000000000000000000008152600401611dfc9061311a565b60405180910390fd5b50505050565b60008073ffffffffffffffffffffffffffffffffffffffff16611e2d83611b21565b73ffffffffffffffffffffffffffffffffffffffff1614159050919050565b606060006001611e5b8461228e565b01905060008167ffffffffffffffff811115611ea0577f4e487b7100000000000000000000000000000000000000000000000000000000600052604160045260246000fd5b6040519080825280601f01601f191660200182016040528015611ed25781602001600182028036833780820191505090505b509050600082602001820190505b600115611f65578080600190039150507f3031323334353637383961626364656600000000000000000000000000000000600a86061a8153600a8581611f4f577f4e487b7100000000000000000000000000000000000000000000000000000000600052601260045260246000fd5b0494506000851415611f6057611f65565b611ee0565b819350505050919050565b600181111561209057600073ffffffffffffffffffffffffffffffffffffffff168473ffffffffffffffffffffffffffffffffffffffff16146120045780600360008673ffffffffffffffffffffffffffffffffffffffff1673ffffffffffffffffffffffffffffffffffffffff1681526020019081526020016000206000828254611ffc91906134fe565b925050819055505b600073ffffffffffffffffffffffffffffffffffffffff168373ffffffffffffffffffffffffffffffffffffffff161461208f5780600360008573ffffffffffffffffffffffffffffffffffffffff1673ffffffffffffffffffffffffffffffffffffffff1681526020019081526020016000206000828254612087919061344e565b925050819055505b5b50505050565b50505050565b6120a683836124c5565b6120b360008484846120f7565b6120f2576040517f08c379a00000000000000000000000000000000000000000000000000000000081526004016120e99061311a565b60405180910390fd5b505050565b60006121188473ffffffffffffffffffffffffffffffffffffffff166126e3565b15612281578373ffffffffffffffffffffffffffffffffffffffff1663150b7a02612141611505565b8786866040518563ffffffff1660e01b81526004016121639493929190613051565b602060405180830381600087803b15801561217d57600080fd5b505af19250505080156121ae57506040513d601f19601f820116820180604052508101906121ab9190612abd565b60015b612231573d80600081146121de576040519150601f19603f3d011682016040523d82523d6000602084013e6121e3565b606091505b50600081511415612229576040517f08c379a00000000000000000000000000000000000000000000000000000000081526004016122209061311a565b60405180910390fd5b805181602001fd5b63150b7a0260e01b7bffffffffffffffffffffffffffffffffffffffffffffffffffffffff1916817bffffffffffffffffffffffffffffffffffffffffffffffffffffffff191614915050612286565b600190505b949350505050565b600080600090507a184f03e93ff9f4daa797ed6e38ed64bf6a1f0100000000000000008310612312577a184f03e93ff9f4daa797ed6e38ed64bf6a1f0100000000000000008381612308577f4e487b7100000000000000000000000000000000000000000000000000000000600052601260045260246000fd5b0492506040810190505b6d04ee2d6d415b85acef81000000008310612375576d04ee2d6d415b85acef8100000000838161236b577f4e487b7100000000000000000000000000000000000000000000000000000000600052601260045260246000fd5b0492506020810190505b662386f26fc1000083106123ca57662386f26fc1000083816123c0577f4e487b7100000000000000000000000000000000000000000000000000000000600052601260045260246000fd5b0492506010810190505b6305f5e1008310612419576305f5e100838161240f577f4e487b7100000000000000000000000000000000000000000000000000000000600052601260045260246000fd5b0492506008810190505b612710831061246457612710838161245a577f4e487b7100000000000000000000000000000000000000000000000000000000600052601260045260246000fd5b0492506004810190505b606483106124ad57606483816124a3577f4e487b7100000000000000000000000000000000000000000000000000000000600052601260045260246000fd5b0492506002810190505b600a83106124bc576001810190505b80915050919050565b600073ffffffffffffffffffffffffffffffffffffffff168273ffffffffffffffffffffffffffffffffffffffff161415612535576040517f08c379a000000000000000000000000000000000000000000000000000000000815260040161252c9061325a565b60405180910390fd5b61253e81611e0b565b1561257e576040517f08c379a00000000000000000000000000000000000000000000000000000000081526004016125759061319a565b60405180910390fd5b61258c600083836001611f70565b61259581611e0b565b156125d5576040517f08c379a00000000000000000000000000000000000000000000000000000000081526004016125cc9061319a565b60405180910390fd5b6001600360008473ffffffffffffffffffffffffffffffffffffffff1673ffffffffffffffffffffffffffffffffffffffff16815260200190815260200160002060008282540192505081905550816002600083815260200190815260200160002060006101000a81548173ffffffffffffffffffffffffffffffffffffffff021916908373ffffffffffffffffffffffffffffffffffffffff160217905550808273ffffffffffffffffffffffffffffffffffffffff16600073ffffffffffffffffffffffffffffffffffffffff167fddf252ad1be2c89b69c2b068fc378daa952ba7f163c4a11628f55a4df523b3ef60405160405180910390a46126df600083836001612096565b5050565b6000808273ffffffffffffffffffffffffffffffffffffffff163b119050919050565b828054612712906135fa565b90600052602060002090601f016020900481019282612734576000855561277b565b82601f1061274d57803560ff191683800117855561277b565b8280016001018555821561277b579182015b8281111561277a57823582559160200191906001019061275f565b5b509050612788919061278c565b5090565b5b808211156127a557600081600090555060010161278d565b5090565b60006127bc6127b7846133ba565b613395565b9050828152602081018484840111156127d457600080fd5b6127df8482856135b8565b509392505050565b6000813590506127f681613bfd565b92915050565b60008135905061280b81613c14565b92915050565b60008135905061282081613c2b565b92915050565b60008151905061283581613c2b565b92915050565b600082601f83011261284c57600080fd5b813561285c8482602086016127a9565b91505092915050565b60008083601f84011261287757600080fd5b8235905067ffffffffffffffff81111561289057600080fd5b6020830191508360018202830111156128a857600080fd5b9250929050565b6000813590506128be81613c42565b92915050565b6000602082840312156128d657600080fd5b60006128e4848285016127e7565b91505092915050565b6000806040838503121561290057600080fd5b600061290e858286016127e7565b925050602061291f858286016127e7565b9150509250929050565b60008060006060848603121561293e57600080fd5b600061294c868287016127e7565b935050602061295d868287016127e7565b925050604061296e868287016128af565b9150509250925092565b6000806000806080858703121561298e57600080fd5b600061299c878288016127e7565b94505060206129ad878288016127e7565b93505060406129be878288016128af565b925050606085013567ffffffffffffffff8111156129db57600080fd5b6129e78782880161283b565b91505092959194509250565b60008060408385031215612a0657600080fd5b6000612a14858286016127e7565b9250506020612a25858286016127fc565b9150509250929050565b60008060408385031215612a4257600080fd5b6000612a50858286016127e7565b9250506020612a61858286016128af565b9150509250929050565b600060208284031215612a7d57600080fd5b6000612a8b848285016127fc565b91505092915050565b600060208284031215612aa657600080fd5b6000612ab484828501612811565b91505092915050565b600060208284031215612acf57600080fd5b6000612add84828501612826565b91505092915050565b60008060208385031215612af957600080fd5b600083013567ffffffffffffffff811115612b1357600080fd5b612b1f85828601612865565b92509250509250929050565b600060208284031215612b3d57600080fd5b6000612b4b848285016128af565b91505092915050565b612b5d81613544565b82525050565b612b6c81613532565b82525050565b612b7b81613556565b82525050565b6000612b8c82613400565b612b968185613416565b9350612ba68185602086016135c7565b612baf81613733565b840191505092915050565b6000612bc58261340b565b612bcf8185613432565b9350612bdf8185602086016135c7565b612be881613733565b840191505092915050565b6000612bfe8261340b565b612c088185613443565b9350612c188185602086016135c7565b80840191505092915050565b60008154612c31816135fa565b612c3b8186613443565b94506001821660008114612c565760018114612c6757612c9a565b60ff19831686528186019350612c9a565b612c70856133eb565b60005b83811015612c9257815481890152600182019150602081019050612c73565b838801955050505b50505092915050565b6000612cb0601083613432565b9150612cbb82613744565b602082019050919050565b6000612cd3602d83613432565b9150612cde8261376d565b604082019050919050565b6000612cf6603283613432565b9150612d01826137bc565b604082019050919050565b6000612d19601383613432565b9150612d248261380b565b602082019050919050565b6000612d3c602683613432565b9150612d4782613834565b604082019050919050565b6000612d5f602583613432565b9150612d6a82613883565b604082019050919050565b6000612d82601c83613432565b9150612d8d826138d2565b602082019050919050565b6000612da5602483613432565b9150612db0826138fb565b604082019050919050565b6000612dc8601983613432565b9150612dd38261394a565b602082019050919050565b6000612deb601f83613432565b9150612df682613973565b602082019050919050565b6000612e0e600883613432565b9150612e198261399c565b602082019050919050565b6000612e31602983613432565b9150612e3c826139c5565b604082019050919050565b6000612e54602083613432565b9150612e5f82613a14565b602082019050919050565b6000612e77600583613443565b9150612e8282613a3d565b600582019050919050565b6000612e9a601183613432565b9150612ea582613a66565b602082019050919050565b6000612ebd602083613432565b9150612ec882613a8f565b602082019050919050565b6000612ee0601983613432565b9150612eeb82613ab8565b602082019050919050565b6000612f03601883613432565b9150612f0e82613ae1565b602082019050919050565b6000612f26602183613432565b9150612f3182613b0a565b604082019050919050565b6000612f49600083613427565b9150612f5482613b59565b600082019050919050565b6000612f6c603d83613432565b9150612f7782613b5c565b604082019050919050565b6000612f8f601583613432565b9150612f9a82613bab565b602082019050919050565b6000612fb2600f83613432565b9150612fbd82613bd4565b602082019050919050565b612fd1816135ae565b82525050565b6000612fe38285612c24565b9150612fef8284612bf3565b9150612ffa82612e6a565b91508190509392505050565b600061301182612f3c565b9150819050919050565b60006020820190506130306000830184612b63565b92915050565b600060208201905061304b6000830184612b54565b92915050565b60006080820190506130666000830187612b63565b6130736020830186612b63565b6130806040830185612fc8565b81810360608301526130928184612b81565b905095945050505050565b60006020820190506130b26000830184612b72565b92915050565b600060208201905081810360008301526130d28184612bba565b905092915050565b600060208201905081810360008301526130f381612ca3565b9050919050565b6000602082019050818103600083015261311381612cc6565b9050919050565b6000602082019050818103600083015261313381612ce9565b9050919050565b6000602082019050818103600083015261315381612d0c565b9050919050565b6000602082019050818103600083015261317381612d2f565b9050919050565b6000602082019050818103600083015261319381612d52565b9050919050565b600060208201905081810360008301526131b381612d75565b9050919050565b600060208201905081810360008301526131d381612d98565b9050919050565b600060208201905081810360008301526131f381612dbb565b9050919050565b6000602082019050818103600083015261321381612dde565b9050919050565b6000602082019050818103600083015261323381612e01565b9050919050565b6000602082019050818103600083015261325381612e24565b9050919050565b6000602082019050818103600083015261327381612e47565b9050919050565b6000602082019050818103600083015261329381612e8d565b9050919050565b600060208201905081810360008301526132b381612eb0565b9050919050565b600060208201905081810360008301526132d381612ed3565b9050919050565b600060208201905081810360008301526132f381612ef6565b9050919050565b6000602082019050818103600083015261331381612f19565b9050919050565b6000602082019050818103600083015261333381612f5f565b9050919050565b6000602082019050818103600083015261335381612f82565b9050919050565b6000602082019050818103600083015261337381612fa5565b9050919050565b600060208201905061338f6000830184612fc8565b92915050565b600061339f6133b0565b90506133ab828261362c565b919050565b6000604051905090565b600067ffffffffffffffff8211156133d5576133d4613704565b5b6133de82613733565b9050602081019050919050565b60008190508160005260206000209050919050565b600081519050919050565b600081519050919050565b600082825260208201905092915050565b600081905092915050565b600082825260208201905092915050565b600081905092915050565b6000613459826135ae565b9150613464836135ae565b9250827fffffffffffffffffffffffffffffffffffffffffffffffffffffffffffffffff03821115613499576134986136a6565b5b828201905092915050565b60006134af826135ae565b91506134ba836135ae565b9250817fffffffffffffffffffffffffffffffffffffffffffffffffffffffffffffffff04831182151516156134f3576134f26136a6565b5b828202905092915050565b6000613509826135ae565b9150613514836135ae565b925082821015613527576135266136a6565b5b828203905092915050565b600061353d8261358e565b9050919050565b600061354f8261358e565b9050919050565b60008115159050919050565b60007fffffffff0000000000000000000000000000000000000000000000000000000082169050919050565b600073ffffffffffffffffffffffffffffffffffffffff82169050919050565b6000819050919050565b82818337600083830152505050565b60005b838110156135e55780820151818401526020810190506135ca565b838111156135f4576000848401525b50505050565b6000600282049050600182168061361257607f821691505b60208210811415613626576136256136d5565b5b50919050565b61363582613733565b810181811067ffffffffffffffff8211171561365457613653613704565b5b80604052505050565b6000613668826135ae565b91507fffffffffffffffffffffffffffffffffffffffffffffffffffffffffffffffff82141561369b5761369a6136a6565b5b600182019050919050565b7f4e487b7100000000000000000000000000000000000000000000000000000000600052601160045260246000fd5b7f4e487b7100000000000000000000000000000000000000000000000000000000600052602260045260246000fd5b7f4e487b7100000000000000000000000000000000000000000000000000000000600052604160045260246000fd5b6000601f19601f8301169050919050565b7f77726f6e67206d696e742076616c756500000000000000000000000000000000600082015250565b7f4552433732313a2063616c6c6572206973206e6f7420746f6b656e206f776e6560008201527f72206f7220617070726f76656400000000000000000000000000000000000000602082015250565b7f4552433732313a207472616e7366657220746f206e6f6e20455243373231526560008201527f63656976657220696d706c656d656e7465720000000000000000000000000000602082015250565b7f6d696e74696e67206e6f7420656e61626c656400000000000000000000000000600082015250565b7f4f776e61626c653a206e6577206f776e657220697320746865207a65726f206160008201527f6464726573730000000000000000000000000000000000000000000000000000602082015250565b7f4552433732313a207472616e736665722066726f6d20696e636f72726563742060008201527f6f776e6572000000000000000000000000000000000000000000000000000000602082015250565b7f4552433732313a20746f6b656e20616c7265616479206d696e74656400000000600082015250565b7f4552433732313a207472616e7366657220746f20746865207a65726f2061646460008201527f7265737300000000000000000000000000000000000000000000000000000000602082015250565b7f4552433732313a20617070726f766520746f2063616c6c657200000000000000600082015250565b7f546f6b656e204944206d7573742062652067726561746572207468616e203000600082015250565b7f736f6c64206f7574000000000000000000000000000000000000000000000000600082015250565b7f4552433732313a2061646472657373207a65726f206973206e6f74206120766160008201527f6c6964206f776e65720000000000000000000000000000000000000000000000602082015250565b7f4552433732313a206d696e7420746f20746865207a65726f2061646472657373600082015250565b7f2e6a736f6e000000000000000000000000000000000000000000000000000000600082015250565b7f657863656564206d61782077616c6c6574000000000000000000000000000000600082015250565b7f4f776e61626c653a2063616c6c6572206973206e6f7420746865206f776e6572600082015250565b7f4f6e6c79206f776e65722063616e206275726e2061204e465400000000000000600082015250565b7f4552433732313a20696e76616c696420746f6b656e2049440000000000000000600082015250565b7f4552433732313a20617070726f76616c20746f2063757272656e74206f776e6560008201527f7200000000000000000000000000000000000000000000000000000000000000602082015250565b50565b7f4552433732313a20617070726f76652063616c6c6572206973206e6f7420746f60008201527f6b656e206f776e6572206f7220617070726f76656420666f7220616c6c000000602082015250565b7f546f6b656e20646f6573206e6f74206578697374210000000000000000000000600082015250565b7f7769746864726177206661696c65640000000000000000000000000000000000600082015250565b613c0681613532565b8114613c1157600080fd5b50565b613c1d81613556565b8114613c2857600080fd5b50565b613c3481613562565b8114613c3f57600080fd5b50565b613c4b816135ae565b8114613c5657600080fd5b5056fea2646970667358221220c8e4c36fd985d68be115b2c79c6c26d78cffcd380c8484e9ebb580fc2e4504e864736f6c63430008010033",
  "linkReferences": {},
  "deployedLinkReferences": {}
}